{
  "_format": "hh-sol-artifact-1",
  "contractName": "CreatureAccessoryFactory",
  "sourceName": "contracts/CreatureAccessoryFactory.sol",
  "abi": [
    {
      "inputs": [
        {
          "internalType": "address",
          "name": "_proxyRegistryAddress",
          "type": "address"
        },
        {
          "internalType": "address",
          "name": "_nftAddress",
          "type": "address"
        }
      ],
      "stateMutability": "nonpayable",
      "type": "constructor"
    },
    {
      "anonymous": false,
      "inputs": [
        {
          "indexed": true,
          "internalType": "address",
          "name": "previousOwner",
          "type": "address"
        },
        {
          "indexed": true,
          "internalType": "address",
          "name": "newOwner",
          "type": "address"
        }
      ],
      "name": "OwnershipTransferred",
      "type": "event"
    },
    {
      "inputs": [],
      "name": "NUM_OPTIONS",
      "outputs": [
        {
          "internalType": "uint256",
          "name": "",
          "type": "uint256"
        }
      ],
      "stateMutability": "view",
      "type": "function"
    },
    {
      "inputs": [
        {
          "internalType": "address",
          "name": "_owner",
          "type": "address"
        },
        {
          "internalType": "uint256",
          "name": "_optionId",
          "type": "uint256"
        }
      ],
      "name": "balanceOf",
      "outputs": [
        {
          "internalType": "uint256",
          "name": "",
          "type": "uint256"
        }
      ],
      "stateMutability": "view",
      "type": "function"
    },
    {
      "inputs": [
        {
          "internalType": "uint256",
          "name": "_optionId",
          "type": "uint256"
        },
        {
          "internalType": "uint256",
          "name": "_amount",
          "type": "uint256"
        }
      ],
      "name": "canMint",
      "outputs": [
        {
          "internalType": "bool",
          "name": "",
          "type": "bool"
        }
      ],
      "stateMutability": "view",
      "type": "function"
    },
    {
      "inputs": [],
      "name": "factorySchemaName",
      "outputs": [
        {
          "internalType": "string",
          "name": "",
          "type": "string"
        }
      ],
      "stateMutability": "pure",
      "type": "function"
    },
    {
      "inputs": [],
      "name": "getMintedData",
      "outputs": [
        {
          "internalType": "bytes[]",
          "name": "",
          "type": "bytes[]"
        }
      ],
      "stateMutability": "view",
      "type": "function"
    },
    {
      "inputs": [],
      "name": "getTokenIds",
      "outputs": [
        {
          "internalType": "uint256[]",
          "name": "",
          "type": "uint256[]"
        }
      ],
      "stateMutability": "view",
      "type": "function"
    },
    {
      "inputs": [
        {
          "internalType": "uint256",
          "name": "_optionId",
          "type": "uint256"
        },
        {
          "internalType": "address",
          "name": "_toAddress",
          "type": "address"
        },
        {
          "internalType": "uint256",
          "name": "_amount",
          "type": "uint256"
        },
        {
          "internalType": "string",
          "name": "_uri",
          "type": "string"
        },
        {
          "internalType": "bytes",
          "name": "_data",
          "type": "bytes"
        }
      ],
      "name": "mint",
      "outputs": [],
      "stateMutability": "nonpayable",
      "type": "function"
    },
    {
      "inputs": [],
      "name": "name",
      "outputs": [
        {
          "internalType": "string",
          "name": "",
          "type": "string"
        }
      ],
      "stateMutability": "pure",
      "type": "function"
    },
    {
      "inputs": [],
      "name": "nftAddress",
      "outputs": [
        {
          "internalType": "address",
          "name": "",
          "type": "address"
        }
      ],
      "stateMutability": "view",
      "type": "function"
    },
    {
      "inputs": [],
      "name": "numOptions",
      "outputs": [
        {
          "internalType": "uint256",
          "name": "",
          "type": "uint256"
        }
      ],
      "stateMutability": "pure",
      "type": "function"
    },
    {
      "inputs": [
        {
          "internalType": "uint256",
          "name": "",
          "type": "uint256"
        }
      ],
      "name": "optionToTokenID",
      "outputs": [
        {
          "internalType": "uint256",
          "name": "",
          "type": "uint256"
        }
      ],
      "stateMutability": "view",
      "type": "function"
    },
    {
      "inputs": [],
      "name": "owner",
      "outputs": [
        {
          "internalType": "address",
          "name": "",
          "type": "address"
        }
      ],
      "stateMutability": "view",
      "type": "function"
    },
    {
      "inputs": [],
      "name": "proxyRegistryAddress",
      "outputs": [
        {
          "internalType": "address",
          "name": "",
          "type": "address"
        }
      ],
      "stateMutability": "view",
      "type": "function"
    },
    {
      "inputs": [],
      "name": "renounceOwnership",
      "outputs": [],
      "stateMutability": "nonpayable",
      "type": "function"
    },
    {
      "inputs": [],
      "name": "supportsFactoryInterface",
      "outputs": [
        {
          "internalType": "bool",
          "name": "",
          "type": "bool"
        }
      ],
      "stateMutability": "pure",
      "type": "function"
    },
    {
      "inputs": [],
      "name": "symbol",
      "outputs": [
        {
          "internalType": "string",
          "name": "",
          "type": "string"
        }
      ],
      "stateMutability": "pure",
      "type": "function"
    },
    {
      "inputs": [
        {
          "internalType": "address",
          "name": "newOwner",
          "type": "address"
        }
      ],
      "name": "transferOwnership",
      "outputs": [],
      "stateMutability": "nonpayable",
      "type": "function"
    },
    {
      "inputs": [
        {
          "internalType": "uint256",
          "name": "_optionId",
          "type": "uint256"
        }
      ],
      "name": "uri",
      "outputs": [
        {
          "internalType": "string",
          "name": "",
          "type": "string"
        }
      ],
      "stateMutability": "pure",
      "type": "function"
    }
  ],
  "bytecode": "0x60806040523480156200001157600080fd5b506040516200239e3803806200239e833981810160405281019062000037919062000197565b6000620000496200017860201b60201c565b9050806000806101000a81548173ffffffffffffffffffffffffffffffffffffffff021916908373ffffffffffffffffffffffffffffffffffffffff1602179055508073ffffffffffffffffffffffffffffffffffffffff16600073ffffffffffffffffffffffffffffffffffffffff167f8be0079c531659141344cd1fd0a4f28419497f9722a3daafe3b4186f6b6457e060405160405180910390a3506001808190555081600260006101000a81548173ffffffffffffffffffffffffffffffffffffffff021916908373ffffffffffffffffffffffffffffffffffffffff16021790555080600360006101000a81548173ffffffffffffffffffffffffffffffffffffffff021916908373ffffffffffffffffffffffffffffffffffffffff160217905550505062000226565b600033905090565b60008151905062000191816200020c565b92915050565b60008060408385031215620001ab57600080fd5b6000620001bb8582860162000180565b9250506020620001ce8582860162000180565b9150509250929050565b6000620001e582620001ec565b9050919050565b600073ffffffffffffffffffffffffffffffffffffffff82169050919050565b6200021781620001d8565b81146200022357600080fd5b50565b61216880620002366000396000f3fe608060405234801561001057600080fd5b50600436106101155760003560e01c8063715018a6116100a2578063ad9cba0711610071578063ad9cba07146102d4578063c311c523146102f2578063cd7c032614610310578063d37810511461032e578063f2fde38b1461034a57610115565b8063715018a61461025e5780638da5cb5b1461026857806395d89b41146102865780639d144762146102a457610115565b80633db62e2c116100e95780633db62e2c146101c857806345df5787146101e65780634b97aed9146102045780635bf8633a1461022257806367f718a91461024057610115565b8062fdd58e1461011a57806306fdde031461014a5780630e89341c1461016857806322e1dea914610198575b600080fd5b610134600480360381019061012f91906113e5565b610366565b6040516101419190611aef565b60405180910390f35b610152610452565b60405161015f9190611a0d565b60405180910390f35b610182600480360381019061017d9190611473565b61048f565b60405161018f9190611a0d565b60405180910390f35b6101b260048036038101906101ad919061156f565b6104da565b6040516101bf91906119f2565b60405180910390f35b6101d06104f6565b6040516101dd9190611aef565b60405180910390f35b6101ee6104fc565b6040516101fb9190611a0d565b60405180910390f35b61020c610539565b6040516102199190611aef565b60405180910390f35b61022a610543565b60405161023791906118e6565b60405180910390f35b610248610569565b60405161025591906119d0565b60405180910390f35b6102666105c1565b005b6102706106fb565b60405161027d91906118e6565b60405180910390f35b61028e610724565b60405161029b9190611a0d565b60405180910390f35b6102be60048036038101906102b99190611473565b610761565b6040516102cb9190611aef565b60405180910390f35b6102dc610779565b6040516102e991906119ae565b60405180910390f35b6102fa610947565b60405161030791906119f2565b60405180910390f35b610318610950565b60405161032591906118e6565b60405180910390f35b610348600480360381019061034391906114c5565b610976565b005b610364600480360381019061035f91906113bc565b610a24565b005b600061037183610bcd565b61037e576000905061044c565b6000600360009054906101000a900473ffffffffffffffffffffffffffffffffffffffff16905060008173ffffffffffffffffffffffffffffffffffffffff1663bd85b039856040518263ffffffff1660e01b81526004016103e09190611aef565b60206040518083038186803b1580156103f857600080fd5b505afa15801561040c573d6000803e3d6000fd5b505050506040513d601f19601f82011682018060405250810190610430919061149c565b905061044781600019610cf890919063ffffffff16565b925050505b92915050565b60606040518060400160405280601681526020017f476f21426f7473206279204865616c7468204865726f00000000000000000000815250905090565b60606040518060800160405280604481526020016120ef604491396104b383610d0e565b6040516020016104c49291906118b7565b6040516020818303038152906040529050919050565b60006104ee6104e7610ebb565b8484610ec3565b905092915050565b61138881565b60606040518060400160405280600781526020017f4552433131353500000000000000000000000000000000000000000000000000815250905090565b6000611388905090565b600360009054906101000a900473ffffffffffffffffffffffffffffffffffffffff1681565b606060048054806020026020016040519081016040528092919081815260200182805480156105b757602002820191906000526020600020905b8154815260200190600101908083116105a3575b5050505050905090565b6105c9610ebb565b73ffffffffffffffffffffffffffffffffffffffff166105e76106fb565b73ffffffffffffffffffffffffffffffffffffffff161461063d576040517f08c379a000000000000000000000000000000000000000000000000000000000815260040161063490611a8f565b60405180910390fd5b600073ffffffffffffffffffffffffffffffffffffffff1660008054906101000a900473ffffffffffffffffffffffffffffffffffffffff1673ffffffffffffffffffffffffffffffffffffffff167f8be0079c531659141344cd1fd0a4f28419497f9722a3daafe3b4186f6b6457e060405160405180910390a360008060006101000a81548173ffffffffffffffffffffffffffffffffffffffff021916908373ffffffffffffffffffffffffffffffffffffffff160217905550565b60008060009054906101000a900473ffffffffffffffffffffffffffffffffffffffff16905090565b60606040518060400160405280600381526020017f474f420000000000000000000000000000000000000000000000000000000000815250905090565b60066020528060005260406000206000915090505481565b6060600060048054905067ffffffffffffffff8111156107c2577f4e487b7100000000000000000000000000000000000000000000000000000000600052604160045260246000fd5b6040519080825280602002602001820160405280156107f557816020015b60608152602001906001900390816107e05790505b50905060005b60048054905081101561093f576005600060048381548110610846577f4e487b7100000000000000000000000000000000000000000000000000000000600052603260045260246000fd5b90600052602060002001548152602001908152602001600020805461086a90611d7d565b80601f016020809104026020016040519081016040528092919081815260200182805461089690611d7d565b80156108e35780601f106108b8576101008083540402835291602001916108e3565b820191906000526020600020905b8154815290600101906020018083116108c657829003601f168201915b5050505050828281518110610921577f4e487b7100000000000000000000000000000000000000000000000000000000600052603260045260246000fd5b6020026020010181905250808061093790611de0565b9150506107fb565b508091505090565b60006001905090565b600260009054906101000a900473ffffffffffffffffffffffffffffffffffffffff1681565b600260015414156109bc576040517f08c379a00000000000000000000000000000000000000000000000000000000081526004016109b390611acf565b60405180910390fd5b6002600181905550610a158686868686868080601f016020809104026020016040519081016040528093929190818152602001838380828437600081840152601f19601f82011690508083019250505050505050610ee6565b60018081905550505050505050565b610a2c610ebb565b73ffffffffffffffffffffffffffffffffffffffff16610a4a6106fb565b73ffffffffffffffffffffffffffffffffffffffff1614610aa0576040517f08c379a0000000000000000000000000000000000000000000000000000000008152600401610a9790611a8f565b60405180910390fd5b600073ffffffffffffffffffffffffffffffffffffffff168173ffffffffffffffffffffffffffffffffffffffff161415610b10576040517f08c379a0000000000000000000000000000000000000000000000000000000008152600401610b0790611a4f565b60405180910390fd5b8073ffffffffffffffffffffffffffffffffffffffff1660008054906101000a900473ffffffffffffffffffffffffffffffffffffffff1673ffffffffffffffffffffffffffffffffffffffff167f8be0079c531659141344cd1fd0a4f28419497f9722a3daafe3b4186f6b6457e060405160405180910390a3806000806101000a81548173ffffffffffffffffffffffffffffffffffffffff021916908373ffffffffffffffffffffffffffffffffffffffff16021790555050565b600080600260009054906101000a900473ffffffffffffffffffffffffffffffffffffffff1690508273ffffffffffffffffffffffffffffffffffffffff16610c146106fb565b73ffffffffffffffffffffffffffffffffffffffff161480610cf057508273ffffffffffffffffffffffffffffffffffffffff168173ffffffffffffffffffffffffffffffffffffffff1663c4552791610c6c6106fb565b6040518263ffffffff1660e01b8152600401610c8891906118e6565b60206040518083038186803b158015610ca057600080fd5b505afa158015610cb4573d6000803e3d6000fd5b505050506040513d601f19601f82011682018060405250810190610cd8919061144a565b73ffffffffffffffffffffffffffffffffffffffff16145b915050919050565b60008183610d069190611cad565b905092915050565b60606000821415610d56576040518060400160405280600181526020017f30000000000000000000000000000000000000000000000000000000000000008152509050610eb6565b600082905060005b60008214610d88578080610d7190611de0565b915050600a82610d819190611c7c565b9150610d5e565b60008167ffffffffffffffff811115610dca577f4e487b7100000000000000000000000000000000000000000000000000000000600052604160045260246000fd5b6040519080825280601f01601f191660200182016040528015610dfc5781602001600182028036833780820191505090505b5090505b60008514610eaf57600182610e159190611cad565b9150600a85610e249190611e29565b6030610e309190611c26565b60f81b818381518110610e6c577f4e487b7100000000000000000000000000000000000000000000000000000000600052603260045260246000fd5b60200101907effffffffffffffffffffffffffffffffffffffffffffffffffffffffffffff1916908160001a905350600a85610ea89190611c7c565b9450610e00565b8093505050505b919050565b600033905090565b60008082118015610edd575081610eda8585610366565b10155b90509392505050565b610ef8610ef1610ebb565b8685610ec3565b610f37576040517f08c379a0000000000000000000000000000000000000000000000000000000008152600401610f2e90611a6f565b60405180910390fd5b611388851015610fc557610f51610f4c610ebb565b610bcd565b610f90576040517f08c379a0000000000000000000000000000000000000000000000000000000008152600401610f8790611a2f565b60405180910390fd5b610fc0600360009054906101000a900473ffffffffffffffffffffffffffffffffffffffff168587868686611007565b611000565b6040517f08c379a0000000000000000000000000000000000000000000000000000000008152600401610ff790611aaf565b60405180910390fd5b5050505050565b60008690508073ffffffffffffffffffffffffffffffffffffffff16634f558e79866040518263ffffffff1660e01b81526004016110459190611aef565b60206040518083038186803b15801561105d57600080fd5b505afa158015611071573d6000803e3d6000fd5b505050506040513d601f19601f820116820180604052508101906110959190611421565b611183576004859080600181540180825580915050600190039060005260206000200160009091909190915055816005600087815260200190815260200160002090805190602001906110e99291906111fe565b508073ffffffffffffffffffffffffffffffffffffffff166336a100d587878787876040518663ffffffff1660e01b815260040161112b95949392919061194d565b602060405180830381600087803b15801561114557600080fd5b505af1158015611159573d6000803e3d6000fd5b505050506040513d601f19601f8201168201806040525081019061117d919061149c565b506111f5565b8073ffffffffffffffffffffffffffffffffffffffff1663731133e9878787866040518563ffffffff1660e01b81526004016111c29493929190611901565b600060405180830381600087803b1580156111dc57600080fd5b505af11580156111f0573d6000803e3d6000fd5b505050505b50505050505050565b82805461120a90611d7d565b90600052602060002090601f01602090048101928261122c5760008555611273565b82601f1061124557805160ff1916838001178555611273565b82800160010185558215611273579182015b82811115611272578251825591602001919060010190611257565b5b5090506112809190611284565b5090565b5b8082111561129d576000816000905550600101611285565b5090565b60006112b46112af84611b2f565b611b0a565b9050828152602081018484840111156112cc57600080fd5b6112d7848285611d3b565b509392505050565b6000813590506112ee81612092565b92915050565b600081519050611303816120a9565b92915050565b60008083601f84011261131b57600080fd5b8235905067ffffffffffffffff81111561133457600080fd5b60208301915083600182028301111561134c57600080fd5b9250929050565b600081519050611362816120c0565b92915050565b600082601f83011261137957600080fd5b81356113898482602086016112a1565b91505092915050565b6000813590506113a1816120d7565b92915050565b6000815190506113b6816120d7565b92915050565b6000602082840312156113ce57600080fd5b60006113dc848285016112df565b91505092915050565b600080604083850312156113f857600080fd5b6000611406858286016112df565b925050602061141785828601611392565b9150509250929050565b60006020828403121561143357600080fd5b6000611441848285016112f4565b91505092915050565b60006020828403121561145c57600080fd5b600061146a84828501611353565b91505092915050565b60006020828403121561148557600080fd5b600061149384828501611392565b91505092915050565b6000602082840312156114ae57600080fd5b60006114bc848285016113a7565b91505092915050565b60008060008060008060a087890312156114de57600080fd5b60006114ec89828a01611392565b96505060206114fd89828a016112df565b955050604061150e89828a01611392565b945050606087013567ffffffffffffffff81111561152b57600080fd5b61153789828a01611368565b935050608087013567ffffffffffffffff81111561155457600080fd5b61156089828a01611309565b92509250509295509295509295565b6000806040838503121561158257600080fd5b600061159085828601611392565b92505060206115a185828601611392565b9150509250929050565b60006115b783836116c8565b905092915050565b60006115cb8383611899565b60208301905092915050565b6115e081611ce1565b82525050565b60006115f182611b80565b6115fb8185611bc6565b93508360208202850161160d85611b60565b8060005b85811015611649578484038952815161162a85826115ab565b945061163583611bac565b925060208a01995050600181019050611611565b50829750879550505050505092915050565b600061166682611b8b565b6116708185611bd7565b935061167b83611b70565b8060005b838110156116ac57815161169388826115bf565b975061169e83611bb9565b92505060018101905061167f565b5085935050505092915050565b6116c281611cf3565b82525050565b60006116d382611b96565b6116dd8185611be8565b93506116ed818560208601611d4a565b6116f681611f16565b840191505092915050565b600061170c82611b96565b6117168185611bf9565b9350611726818560208601611d4a565b61172f81611f16565b840191505092915050565b600061174582611ba1565b61174f8185611c0a565b935061175f818560208601611d4a565b61176881611f16565b840191505092915050565b600061177e82611ba1565b6117888185611c1b565b9350611798818560208601611d4a565b80840191505092915050565b60006117b1601883611c0a565b91506117bc82611f27565b602082019050919050565b60006117d4602683611c0a565b91506117df82611f50565b604082019050919050565b60006117f7600883611c1b565b915061180282611f9f565b600882019050919050565b600061181a603083611c0a565b915061182582611fc8565b604082019050919050565b600061183d602083611c0a565b915061184882612017565b602082019050919050565b6000611860600f83611c0a565b915061186b82612040565b602082019050919050565b6000611883601f83611c0a565b915061188e82612069565b602082019050919050565b6118a281611d31565b82525050565b6118b181611d31565b82525050565b60006118c38285611773565b91506118ce826117ea565b91506118da8284611773565b91508190509392505050565b60006020820190506118fb60008301846115d7565b92915050565b600060808201905061191660008301876115d7565b61192360208301866118a8565b61193060408301856118a8565b81810360608301526119428184611701565b905095945050505050565b600060a08201905061196260008301886115d7565b61196f60208301876118a8565b61197c60408301866118a8565b818103606083015261198e818561173a565b905081810360808301526119a28184611701565b90509695505050505050565b600060208201905081810360008301526119c881846115e6565b905092915050565b600060208201905081810360008301526119ea818461165b565b905092915050565b6000602082019050611a0760008301846116b9565b92915050565b60006020820190508181036000830152611a27818461173a565b905092915050565b60006020820190508181036000830152611a48816117a4565b9050919050565b60006020820190508181036000830152611a68816117c7565b9050919050565b60006020820190508181036000830152611a888161180d565b9050919050565b60006020820190508181036000830152611aa881611830565b9050919050565b60006020820190508181036000830152611ac881611853565b9050919050565b60006020820190508181036000830152611ae881611876565b9050919050565b6000602082019050611b0460008301846118a8565b92915050565b6000611b14611b25565b9050611b208282611daf565b919050565b6000604051905090565b600067ffffffffffffffff821115611b4a57611b49611ee7565b5b611b5382611f16565b9050602081019050919050565b6000819050602082019050919050565b6000819050602082019050919050565b600081519050919050565b600081519050919050565b600081519050919050565b600081519050919050565b6000602082019050919050565b6000602082019050919050565b600082825260208201905092915050565b600082825260208201905092915050565b600082825260208201905092915050565b600082825260208201905092915050565b600082825260208201905092915050565b600081905092915050565b6000611c3182611d31565b9150611c3c83611d31565b9250827fffffffffffffffffffffffffffffffffffffffffffffffffffffffffffffffff03821115611c7157611c70611e5a565b5b828201905092915050565b6000611c8782611d31565b9150611c9283611d31565b925082611ca257611ca1611e89565b5b828204905092915050565b6000611cb882611d31565b9150611cc383611d31565b925082821015611cd657611cd5611e5a565b5b828203905092915050565b6000611cec82611d11565b9050919050565b60008115159050919050565b6000611d0a82611ce1565b9050919050565b600073ffffffffffffffffffffffffffffffffffffffff82169050919050565b6000819050919050565b82818337600083830152505050565b60005b83811015611d68578082015181840152602081019050611d4d565b83811115611d77576000848401525b50505050565b60006002820490506001821680611d9557607f821691505b60208210811415611da957611da8611eb8565b5b50919050565b611db882611f16565b810181811067ffffffffffffffff82111715611dd757611dd6611ee7565b5b80604052505050565b6000611deb82611d31565b91507fffffffffffffffffffffffffffffffffffffffffffffffffffffffffffffffff821415611e1e57611e1d611e5a565b5b600182019050919050565b6000611e3482611d31565b9150611e3f83611d31565b925082611e4f57611e4e611e89565b5b828206905092915050565b7f4e487b7100000000000000000000000000000000000000000000000000000000600052601160045260246000fd5b7f4e487b7100000000000000000000000000000000000000000000000000000000600052601260045260246000fd5b7f4e487b7100000000000000000000000000000000000000000000000000000000600052602260045260246000fd5b7f4e487b7100000000000000000000000000000000000000000000000000000000600052604160045260246000fd5b6000601f19601f8301169050919050565b7f43616c6c65722063616e6e6f74206d696e7420626f7865730000000000000000600082015250565b7f4f776e61626c653a206e6577206f776e657220697320746865207a65726f206160008201527f6464726573730000000000000000000000000000000000000000000000000000602082015250565b7f666163746f72792f000000000000000000000000000000000000000000000000600082015250565b7f43726561747572654163636573736f7279466163746f7279235f6d696e743a2060008201527f43414e4e4f545f4d494e545f4d4f524500000000000000000000000000000000602082015250565b7f4f776e61626c653a2063616c6c6572206973206e6f7420746865206f776e6572600082015250565b7f556e6b6e6f776e205f6f7074696f6e0000000000000000000000000000000000600082015250565b7f5265656e7472616e637947756172643a207265656e7472616e742063616c6c00600082015250565b61209b81611ce1565b81146120a657600080fd5b50565b6120b281611cf3565b81146120bd57600080fd5b50565b6120c981611cff565b81146120d457600080fd5b50565b6120e081611d31565b81146120eb57600080fd5b5056fe68747470733a2f2f697066732e696f2f697066732f516d5432646d617779327046777350557045674d756b734568523245486d5a396a32646262566f355935376a644a2fa26469706673582212203808d3a32e469628ecfceb02e830bf729df563774ac2124d03a1f65052d8e15d64736f6c63430008040033",
  "linkReferences": {},
  "deployedLinkReferences": {}
}