{
  "_format": "hh-sol-artifact-1",
  "contractName": "StaticStorage",
  "sourceName": "contracts/StaticStorage.sol",
  "abi": [
    {
      "anonymous": false,
      "inputs": [
        {
          "indexed": false,
          "internalType": "uint256",
          "name": "_id",
          "type": "uint256"
        },
        {
          "indexed": false,
          "internalType": "bytes",
          "name": "_metaData",
          "type": "bytes"
        }
      ],
      "name": "AddBot",
      "type": "event"
    },
    {
      "anonymous": false,
      "inputs": [
        {
          "indexed": true,
          "internalType": "address",
          "name": "previousOwner",
          "type": "address"
        },
        {
          "indexed": true,
          "internalType": "address",
          "name": "newOwner",
          "type": "address"
        }
      ],
      "name": "OwnershipTransferred",
      "type": "event"
    },
    {
      "inputs": [
        {
          "internalType": "uint256",
          "name": "_id",
          "type": "uint256"
        },
        {
          "internalType": "bytes",
          "name": "_metaData",
          "type": "bytes"
        }
      ],
      "name": "addBotInfo",
      "outputs": [],
      "stateMutability": "nonpayable",
      "type": "function"
    },
    {
      "inputs": [],
      "name": "getAllBotInfos",
      "outputs": [
        {
          "components": [
            {
              "internalType": "uint256",
              "name": "id",
              "type": "uint256"
            },
            {
              "internalType": "bytes",
              "name": "metaData",
              "type": "bytes"
            }
          ],
          "internalType": "struct StaticStorage.BotInfo[]",
          "name": "",
          "type": "tuple[]"
        }
      ],
      "stateMutability": "view",
      "type": "function"
    },
    {
      "inputs": [],
      "name": "owner",
      "outputs": [
        {
          "internalType": "address",
          "name": "",
          "type": "address"
        }
      ],
      "stateMutability": "view",
      "type": "function"
    },
    {
      "inputs": [],
      "name": "renounceOwnership",
      "outputs": [],
      "stateMutability": "nonpayable",
      "type": "function"
    },
    {
      "inputs": [
        {
          "internalType": "address",
          "name": "newOwner",
          "type": "address"
        }
      ],
      "name": "transferOwnership",
      "outputs": [],
      "stateMutability": "nonpayable",
      "type": "function"
    }
  ],
  "bytecode": "0x608060405234801561001057600080fd5b5060006100216100c460201b60201c565b9050806000806101000a81548173ffffffffffffffffffffffffffffffffffffffff021916908373ffffffffffffffffffffffffffffffffffffffff1602179055508073ffffffffffffffffffffffffffffffffffffffff16600073ffffffffffffffffffffffffffffffffffffffff167f8be0079c531659141344cd1fd0a4f28419497f9722a3daafe3b4186f6b6457e060405160405180910390a3506100cc565b600033905090565b610d0e806100db6000396000f3fe608060405234801561001057600080fd5b50600436106100575760003560e01c8063715018a61461005c57806375023a39146100665780638da5cb5b14610082578063f2fde38b146100a0578063fbd1e4c0146100bc575b600080fd5b6100646100da565b005b610080600480360381019061007b9190610769565b610214565b005b61008a610336565b6040516100979190610968565b60405180910390f35b6100ba60048036038101906100b59190610740565b61035f565b005b6100c4610508565b6040516100d19190610983565b60405180910390f35b6100e2610603565b73ffffffffffffffffffffffffffffffffffffffff16610100610336565b73ffffffffffffffffffffffffffffffffffffffff1614610156576040517f08c379a000000000000000000000000000000000000000000000000000000000815260040161014d906109c5565b60405180910390fd5b600073ffffffffffffffffffffffffffffffffffffffff1660008054906101000a900473ffffffffffffffffffffffffffffffffffffffff1673ffffffffffffffffffffffffffffffffffffffff167f8be0079c531659141344cd1fd0a4f28419497f9722a3daafe3b4186f6b6457e060405160405180910390a360008060006101000a81548173ffffffffffffffffffffffffffffffffffffffff021916908373ffffffffffffffffffffffffffffffffffffffff160217905550565b61021c610603565b73ffffffffffffffffffffffffffffffffffffffff1661023a610336565b73ffffffffffffffffffffffffffffffffffffffff1614610290576040517f08c379a0000000000000000000000000000000000000000000000000000000008152600401610287906109c5565b60405180910390fd5b600160405180604001604052808481526020018381525090806001815401808255809150506001900390600052602060002090600202016000909190919091506000820151816000015560208201518160010190805190602001906102f692919061060b565b5050507f5ae01c8b2ddefc7819be56c85c07200ece0cf588c7961cc19f60d5e994bcd278828260405161032a9291906109e5565b60405180910390a15050565b60008060009054906101000a900473ffffffffffffffffffffffffffffffffffffffff16905090565b610367610603565b73ffffffffffffffffffffffffffffffffffffffff16610385610336565b73ffffffffffffffffffffffffffffffffffffffff16146103db576040517f08c379a00000000000000000000000000000000000000000000000000000000081526004016103d2906109c5565b60405180910390fd5b600073ffffffffffffffffffffffffffffffffffffffff168173ffffffffffffffffffffffffffffffffffffffff16141561044b576040517f08c379a0000000000000000000000000000000000000000000000000000000008152600401610442906109a5565b60405180910390fd5b8073ffffffffffffffffffffffffffffffffffffffff1660008054906101000a900473ffffffffffffffffffffffffffffffffffffffff1673ffffffffffffffffffffffffffffffffffffffff167f8be0079c531659141344cd1fd0a4f28419497f9722a3daafe3b4186f6b6457e060405160405180910390a3806000806101000a81548173ffffffffffffffffffffffffffffffffffffffff021916908373ffffffffffffffffffffffffffffffffffffffff16021790555050565b60606001805480602002602001604051908101604052809291908181526020016000905b828210156105fa57838290600052602060002090600202016040518060400160405290816000820154815260200160018201805461056990610b60565b80601f016020809104026020016040519081016040528092919081815260200182805461059590610b60565b80156105e25780601f106105b7576101008083540402835291602001916105e2565b820191906000526020600020905b8154815290600101906020018083116105c557829003601f168201915b5050505050815250508152602001906001019061052c565b50505050905090565b600033905090565b82805461061790610b60565b90600052602060002090601f0160209004810192826106395760008555610680565b82601f1061065257805160ff1916838001178555610680565b82800160010185558215610680579182015b8281111561067f578251825591602001919060010190610664565b5b50905061068d9190610691565b5090565b5b808211156106aa576000816000905550600101610692565b5090565b60006106c16106bc84610a3a565b610a15565b9050828152602081018484840111156106d957600080fd5b6106e4848285610b1e565b509392505050565b6000813590506106fb81610caa565b92915050565b600082601f83011261071257600080fd5b81356107228482602086016106ae565b91505092915050565b60008135905061073a81610cc1565b92915050565b60006020828403121561075257600080fd5b6000610760848285016106ec565b91505092915050565b6000806040838503121561077c57600080fd5b600061078a8582860161072b565b925050602083013567ffffffffffffffff8111156107a757600080fd5b6107b385828601610701565b9150509250929050565b60006107c9838361090d565b905092915050565b6107da81610ae2565b82525050565b60006107eb82610a7b565b6107f58185610a9e565b93508360208202850161080785610a6b565b8060005b85811015610843578484038952815161082485826107bd565b945061082f83610a91565b925060208a0199505060018101905061080b565b50829750879550505050505092915050565b600061086082610a86565b61086a8185610aaf565b935061087a818560208601610b2d565b61088381610c21565b840191505092915050565b600061089982610a86565b6108a38185610ac0565b93506108b3818560208601610b2d565b6108bc81610c21565b840191505092915050565b60006108d4602683610ad1565b91506108df82610c32565b604082019050919050565b60006108f7602083610ad1565b915061090282610c81565b602082019050919050565b6000604083016000830151610925600086018261094a565b506020830151848203602086015261093d8282610855565b9150508091505092915050565b61095381610b14565b82525050565b61096281610b14565b82525050565b600060208201905061097d60008301846107d1565b92915050565b6000602082019050818103600083015261099d81846107e0565b905092915050565b600060208201905081810360008301526109be816108c7565b9050919050565b600060208201905081810360008301526109de816108ea565b9050919050565b60006040820190506109fa6000830185610959565b8181036020830152610a0c818461088e565b90509392505050565b6000610a1f610a30565b9050610a2b8282610b92565b919050565b6000604051905090565b600067ffffffffffffffff821115610a5557610a54610bf2565b5b610a5e82610c21565b9050602081019050919050565b6000819050602082019050919050565b600081519050919050565b600081519050919050565b6000602082019050919050565b600082825260208201905092915050565b600082825260208201905092915050565b600082825260208201905092915050565b600082825260208201905092915050565b6000610aed82610af4565b9050919050565b600073ffffffffffffffffffffffffffffffffffffffff82169050919050565b6000819050919050565b82818337600083830152505050565b60005b83811015610b4b578082015181840152602081019050610b30565b83811115610b5a576000848401525b50505050565b60006002820490506001821680610b7857607f821691505b60208210811415610b8c57610b8b610bc3565b5b50919050565b610b9b82610c21565b810181811067ffffffffffffffff82111715610bba57610bb9610bf2565b5b80604052505050565b7f4e487b7100000000000000000000000000000000000000000000000000000000600052602260045260246000fd5b7f4e487b7100000000000000000000000000000000000000000000000000000000600052604160045260246000fd5b6000601f19601f8301169050919050565b7f4f776e61626c653a206e6577206f776e657220697320746865207a65726f206160008201527f6464726573730000000000000000000000000000000000000000000000000000602082015250565b7f4f776e61626c653a2063616c6c6572206973206e6f7420746865206f776e6572600082015250565b610cb381610ae2565b8114610cbe57600080fd5b50565b610cca81610b14565b8114610cd557600080fd5b5056fea26469706673582212209911adbb14182e024134909765d667ed9115ae74e79ee2cff43a428930f99dfc64736f6c63430008040033",
  "linkReferences": {},
  "deployedLinkReferences": {}
}