{
  "_format": "hh-sol-artifact-1",
  "contractName": "ERC1155Tradable",
  "sourceName": "contracts/ERC1155Tradable.sol",
  "abi": [
    {
      "inputs": [
        {
          "internalType": "string",
          "name": "_name",
          "type": "string"
        },
        {
          "internalType": "string",
          "name": "_symbol",
          "type": "string"
        },
        {
          "internalType": "string",
          "name": "_uri",
          "type": "string"
        },
        {
          "internalType": "address",
          "name": "_proxyRegistryAddress",
          "type": "address"
        }
      ],
      "stateMutability": "nonpayable",
      "type": "constructor"
    },
    {
      "anonymous": false,
      "inputs": [
        {
          "indexed": true,
          "internalType": "address",
          "name": "account",
          "type": "address"
        },
        {
          "indexed": true,
          "internalType": "address",
          "name": "operator",
          "type": "address"
        },
        {
          "indexed": false,
          "internalType": "bool",
          "name": "approved",
          "type": "bool"
        }
      ],
      "name": "ApprovalForAll",
      "type": "event"
    },
    {
      "anonymous": false,
      "inputs": [
        {
          "indexed": false,
          "internalType": "address",
          "name": "userAddress",
          "type": "address"
        },
        {
          "indexed": false,
          "internalType": "address payable",
          "name": "relayerAddress",
          "type": "address"
        },
        {
          "indexed": false,
          "internalType": "bytes",
          "name": "functionSignature",
          "type": "bytes"
        }
      ],
      "name": "MetaTransactionExecuted",
      "type": "event"
    },
    {
      "anonymous": false,
      "inputs": [
        {
          "indexed": true,
          "internalType": "address",
          "name": "previousOwner",
          "type": "address"
        },
        {
          "indexed": true,
          "internalType": "address",
          "name": "newOwner",
          "type": "address"
        }
      ],
      "name": "OwnershipTransferred",
      "type": "event"
    },
    {
      "anonymous": false,
      "inputs": [
        {
          "indexed": true,
          "internalType": "address",
          "name": "operator",
          "type": "address"
        },
        {
          "indexed": true,
          "internalType": "address",
          "name": "from",
          "type": "address"
        },
        {
          "indexed": true,
          "internalType": "address",
          "name": "to",
          "type": "address"
        },
        {
          "indexed": false,
          "internalType": "uint256[]",
          "name": "ids",
          "type": "uint256[]"
        },
        {
          "indexed": false,
          "internalType": "uint256[]",
          "name": "values",
          "type": "uint256[]"
        }
      ],
      "name": "TransferBatch",
      "type": "event"
    },
    {
      "anonymous": false,
      "inputs": [
        {
          "indexed": true,
          "internalType": "address",
          "name": "operator",
          "type": "address"
        },
        {
          "indexed": true,
          "internalType": "address",
          "name": "from",
          "type": "address"
        },
        {
          "indexed": true,
          "internalType": "address",
          "name": "to",
          "type": "address"
        },
        {
          "indexed": false,
          "internalType": "uint256",
          "name": "id",
          "type": "uint256"
        },
        {
          "indexed": false,
          "internalType": "uint256",
          "name": "value",
          "type": "uint256"
        }
      ],
      "name": "TransferSingle",
      "type": "event"
    },
    {
      "anonymous": false,
      "inputs": [
        {
          "indexed": false,
          "internalType": "string",
          "name": "value",
          "type": "string"
        },
        {
          "indexed": true,
          "internalType": "uint256",
          "name": "id",
          "type": "uint256"
        }
      ],
      "name": "URI",
      "type": "event"
    },
    {
      "inputs": [],
      "name": "ERC712_VERSION",
      "outputs": [
        {
          "internalType": "string",
          "name": "",
          "type": "string"
        }
      ],
      "stateMutability": "view",
      "type": "function"
    },
    {
      "inputs": [
        {
          "internalType": "address",
          "name": "account",
          "type": "address"
        },
        {
          "internalType": "uint256",
          "name": "id",
          "type": "uint256"
        }
      ],
      "name": "balanceOf",
      "outputs": [
        {
          "internalType": "uint256",
          "name": "",
          "type": "uint256"
        }
      ],
      "stateMutability": "view",
      "type": "function"
    },
    {
      "inputs": [
        {
          "internalType": "address[]",
          "name": "accounts",
          "type": "address[]"
        },
        {
          "internalType": "uint256[]",
          "name": "ids",
          "type": "uint256[]"
        }
      ],
      "name": "balanceOfBatch",
      "outputs": [
        {
          "internalType": "uint256[]",
          "name": "",
          "type": "uint256[]"
        }
      ],
      "stateMutability": "view",
      "type": "function"
    },
    {
      "inputs": [
        {
          "internalType": "address",
          "name": "_to",
          "type": "address"
        },
        {
          "internalType": "uint256[]",
          "name": "_ids",
          "type": "uint256[]"
        },
        {
          "internalType": "uint256[]",
          "name": "_quantities",
          "type": "uint256[]"
        },
        {
          "internalType": "bytes",
          "name": "_data",
          "type": "bytes"
        }
      ],
      "name": "batchMint",
      "outputs": [],
      "stateMutability": "nonpayable",
      "type": "function"
    },
    {
      "inputs": [
        {
          "internalType": "address",
          "name": "_initialOwner",
          "type": "address"
        },
        {
          "internalType": "uint256",
          "name": "_id",
          "type": "uint256"
        },
        {
          "internalType": "uint256",
          "name": "_initialSupply",
          "type": "uint256"
        },
        {
          "internalType": "string",
          "name": "_uri",
          "type": "string"
        },
        {
          "internalType": "bytes",
          "name": "_data",
          "type": "bytes"
        }
      ],
      "name": "create",
      "outputs": [
        {
          "internalType": "uint256",
          "name": "",
          "type": "uint256"
        }
      ],
      "stateMutability": "nonpayable",
      "type": "function"
    },
    {
      "inputs": [
        {
          "internalType": "uint256",
          "name": "",
          "type": "uint256"
        }
      ],
      "name": "creators",
      "outputs": [
        {
          "internalType": "address",
          "name": "",
          "type": "address"
        }
      ],
      "stateMutability": "view",
      "type": "function"
    },
    {
      "inputs": [
        {
          "internalType": "address",
          "name": "userAddress",
          "type": "address"
        },
        {
          "internalType": "bytes",
          "name": "functionSignature",
          "type": "bytes"
        },
        {
          "internalType": "bytes32",
          "name": "sigR",
          "type": "bytes32"
        },
        {
          "internalType": "bytes32",
          "name": "sigS",
          "type": "bytes32"
        },
        {
          "internalType": "uint8",
          "name": "sigV",
          "type": "uint8"
        }
      ],
      "name": "executeMetaTransaction",
      "outputs": [
        {
          "internalType": "bytes",
          "name": "",
          "type": "bytes"
        }
      ],
      "stateMutability": "payable",
      "type": "function"
    },
    {
      "inputs": [
        {
          "internalType": "uint256",
          "name": "_id",
          "type": "uint256"
        }
      ],
      "name": "exists",
      "outputs": [
        {
          "internalType": "bool",
          "name": "",
          "type": "bool"
        }
      ],
      "stateMutability": "view",
      "type": "function"
    },
    {
      "inputs": [],
      "name": "getChainId",
      "outputs": [
        {
          "internalType": "uint256",
          "name": "",
          "type": "uint256"
        }
      ],
      "stateMutability": "view",
      "type": "function"
    },
    {
      "inputs": [],
      "name": "getDomainSeperator",
      "outputs": [
        {
          "internalType": "bytes32",
          "name": "",
          "type": "bytes32"
        }
      ],
      "stateMutability": "view",
      "type": "function"
    },
    {
      "inputs": [
        {
          "internalType": "address",
          "name": "user",
          "type": "address"
        }
      ],
      "name": "getNonce",
      "outputs": [
        {
          "internalType": "uint256",
          "name": "nonce",
          "type": "uint256"
        }
      ],
      "stateMutability": "view",
      "type": "function"
    },
    {
      "inputs": [
        {
          "internalType": "address",
          "name": "_owner",
          "type": "address"
        },
        {
          "internalType": "address",
          "name": "_operator",
          "type": "address"
        }
      ],
      "name": "isApprovedForAll",
      "outputs": [
        {
          "internalType": "bool",
          "name": "isOperator",
          "type": "bool"
        }
      ],
      "stateMutability": "view",
      "type": "function"
    },
    {
      "inputs": [
        {
          "internalType": "address",
          "name": "_to",
          "type": "address"
        },
        {
          "internalType": "uint256",
          "name": "_id",
          "type": "uint256"
        },
        {
          "internalType": "uint256",
          "name": "_quantity",
          "type": "uint256"
        },
        {
          "internalType": "bytes",
          "name": "_data",
          "type": "bytes"
        }
      ],
      "name": "mint",
      "outputs": [],
      "stateMutability": "nonpayable",
      "type": "function"
    },
    {
      "inputs": [],
      "name": "name",
      "outputs": [
        {
          "internalType": "string",
          "name": "",
          "type": "string"
        }
      ],
      "stateMutability": "view",
      "type": "function"
    },
    {
      "inputs": [],
      "name": "owner",
      "outputs": [
        {
          "internalType": "address",
          "name": "",
          "type": "address"
        }
      ],
      "stateMutability": "view",
      "type": "function"
    },
    {
      "inputs": [],
      "name": "renounceOwnership",
      "outputs": [],
      "stateMutability": "nonpayable",
      "type": "function"
    },
    {
      "inputs": [
        {
          "internalType": "address",
          "name": "from",
          "type": "address"
        },
        {
          "internalType": "address",
          "name": "to",
          "type": "address"
        },
        {
          "internalType": "uint256[]",
          "name": "ids",
          "type": "uint256[]"
        },
        {
          "internalType": "uint256[]",
          "name": "amounts",
          "type": "uint256[]"
        },
        {
          "internalType": "bytes",
          "name": "data",
          "type": "bytes"
        }
      ],
      "name": "safeBatchTransferFrom",
      "outputs": [],
      "stateMutability": "nonpayable",
      "type": "function"
    },
    {
      "inputs": [
        {
          "internalType": "address",
          "name": "from",
          "type": "address"
        },
        {
          "internalType": "address",
          "name": "to",
          "type": "address"
        },
        {
          "internalType": "uint256",
          "name": "id",
          "type": "uint256"
        },
        {
          "internalType": "uint256",
          "name": "amount",
          "type": "uint256"
        },
        {
          "internalType": "bytes",
          "name": "data",
          "type": "bytes"
        }
      ],
      "name": "safeTransferFrom",
      "outputs": [],
      "stateMutability": "nonpayable",
      "type": "function"
    },
    {
      "inputs": [
        {
          "internalType": "address",
          "name": "operator",
          "type": "address"
        },
        {
          "internalType": "bool",
          "name": "approved",
          "type": "bool"
        }
      ],
      "name": "setApprovalForAll",
      "outputs": [],
      "stateMutability": "nonpayable",
      "type": "function"
    },
    {
      "inputs": [
        {
          "internalType": "address",
          "name": "_to",
          "type": "address"
        },
        {
          "internalType": "uint256[]",
          "name": "_ids",
          "type": "uint256[]"
        }
      ],
      "name": "setCreator",
      "outputs": [],
      "stateMutability": "nonpayable",
      "type": "function"
    },
    {
      "inputs": [
        {
          "internalType": "uint256",
          "name": "_tokenId",
          "type": "uint256"
        },
        {
          "internalType": "string",
          "name": "_newURI",
          "type": "string"
        }
      ],
      "name": "setCustomURI",
      "outputs": [],
      "stateMutability": "nonpayable",
      "type": "function"
    },
    {
      "inputs": [
        {
          "internalType": "string",
          "name": "_newURI",
          "type": "string"
        }
      ],
      "name": "setURI",
      "outputs": [],
      "stateMutability": "nonpayable",
      "type": "function"
    },
    {
      "inputs": [
        {
          "internalType": "bytes4",
          "name": "interfaceId",
          "type": "bytes4"
        }
      ],
      "name": "supportsInterface",
      "outputs": [
        {
          "internalType": "bool",
          "name": "",
          "type": "bool"
        }
      ],
      "stateMutability": "view",
      "type": "function"
    },
    {
      "inputs": [],
      "name": "symbol",
      "outputs": [
        {
          "internalType": "string",
          "name": "",
          "type": "string"
        }
      ],
      "stateMutability": "view",
      "type": "function"
    },
    {
      "inputs": [
        {
          "internalType": "uint256",
          "name": "",
          "type": "uint256"
        }
      ],
      "name": "tokenSupply",
      "outputs": [
        {
          "internalType": "uint256",
          "name": "",
          "type": "uint256"
        }
      ],
      "stateMutability": "view",
      "type": "function"
    },
    {
      "inputs": [
        {
          "internalType": "uint256",
          "name": "_id",
          "type": "uint256"
        }
      ],
      "name": "totalSupply",
      "outputs": [
        {
          "internalType": "uint256",
          "name": "",
          "type": "uint256"
        }
      ],
      "stateMutability": "view",
      "type": "function"
    },
    {
      "inputs": [
        {
          "internalType": "address",
          "name": "newOwner",
          "type": "address"
        }
      ],
      "name": "transferOwnership",
      "outputs": [],
      "stateMutability": "nonpayable",
      "type": "function"
    },
    {
      "inputs": [
        {
          "internalType": "uint256",
          "name": "_id",
          "type": "uint256"
        }
      ],
      "name": "uri",
      "outputs": [
        {
          "internalType": "string",
          "name": "",
          "type": "string"
        }
      ],
      "stateMutability": "view",
      "type": "function"
    }
  ],
  "bytecode": "0x60806040526000600360006101000a81548160ff0219169083151502179055503480156200002c57600080fd5b5060405162005cb138038062005cb1833981810160405281019062000052919062000598565b8162000064816200023660201b60201c565b506000620000776200025260201b60201c565b905080600660006101000a81548173ffffffffffffffffffffffffffffffffffffffff021916908373ffffffffffffffffffffffffffffffffffffffff1602179055508073ffffffffffffffffffffffffffffffffffffffff16600073ffffffffffffffffffffffffffffffffffffffff167f8be0079c531659141344cd1fd0a4f28419497f9722a3daafe3b4186f6b6457e060405160405180910390a35083600b90805190602001906200012e9291906200045f565b5082600c9080519060200190620001479291906200045f565b5080600760006101000a81548173ffffffffffffffffffffffffffffffffffffffff021916908373ffffffffffffffffffffffffffffffffffffffff1602179055506200022c600b80546200019c90620007fb565b80601f0160208091040260200160405190810160405280929190818152602001828054620001ca90620007fb565b80156200021b5780601f10620001ef576101008083540402835291602001916200021b565b820191906000526020600020905b815481529060010190602001808311620001fd57829003601f168201915b50505050506200026e60201b60201c565b5050505062000919565b80600290805190602001906200024e9291906200045f565b5050565b600062000269620002f060201b620024301760201c565b905090565b600360009054906101000a900460ff1615620002c1576040517f08c379a0000000000000000000000000000000000000000000000000000000008152600401620002b890620006f5565b60405180910390fd5b620002d281620003a360201b60201c565b6001600360006101000a81548160ff02191690831515021790555050565b60003073ffffffffffffffffffffffffffffffffffffffff163373ffffffffffffffffffffffffffffffffffffffff1614156200039c57600080368080601f016020809104026020016040519081016040528093929190818152602001838380828437600081840152601f19601f820116905080830192505050505050509050600080369050905073ffffffffffffffffffffffffffffffffffffffff818301511692505050620003a0565b3390505b90565b6040518060800160405280604f815260200162005c62604f91398051906020012081805190602001206040518060400160405280600181526020017f310000000000000000000000000000000000000000000000000000000000000081525080519060200120306200041a6200045260201b60201c565b60001b6040516020016200043395949392919062000698565b6040516020818303038152906040528051906020012060048190555050565b6000804690508091505090565b8280546200046d90620007fb565b90600052602060002090601f016020900481019282620004915760008555620004dd565b82601f10620004ac57805160ff1916838001178555620004dd565b82800160010185558215620004dd579182015b82811115620004dc578251825591602001919060010190620004bf565b5b509050620004ec9190620004f0565b5090565b5b808211156200050b576000816000905550600101620004f1565b5090565b600062000526620005208462000740565b62000717565b9050828152602081018484840111156200053f57600080fd5b6200054c848285620007c5565b509392505050565b6000815190506200056581620008ff565b92915050565b600082601f8301126200057d57600080fd5b81516200058f8482602086016200050f565b91505092915050565b60008060008060808587031215620005af57600080fd5b600085015167ffffffffffffffff811115620005ca57600080fd5b620005d8878288016200056b565b945050602085015167ffffffffffffffff811115620005f657600080fd5b62000604878288016200056b565b935050604085015167ffffffffffffffff8111156200062257600080fd5b62000630878288016200056b565b9250506060620006438782880162000554565b91505092959194509250565b6200065a8162000787565b82525050565b6200066b816200079b565b82525050565b600062000680600e8362000776565b91506200068d82620008d6565b602082019050919050565b600060a082019050620006af600083018862000660565b620006be602083018762000660565b620006cd604083018662000660565b620006dc60608301856200064f565b620006eb608083018462000660565b9695505050505050565b60006020820190508181036000830152620007108162000671565b9050919050565b60006200072362000736565b905062000731828262000831565b919050565b6000604051905090565b600067ffffffffffffffff8211156200075e576200075d62000896565b5b6200076982620008c5565b9050602081019050919050565b600082825260208201905092915050565b60006200079482620007a5565b9050919050565b6000819050919050565b600073ffffffffffffffffffffffffffffffffffffffff82169050919050565b60005b83811015620007e5578082015181840152602081019050620007c8565b83811115620007f5576000848401525b50505050565b600060028204905060018216806200081457607f821691505b602082108114156200082b576200082a62000867565b5b50919050565b6200083c82620008c5565b810181811067ffffffffffffffff821117156200085e576200085d62000896565b5b80604052505050565b7f4e487b7100000000000000000000000000000000000000000000000000000000600052602260045260246000fd5b7f4e487b7100000000000000000000000000000000000000000000000000000000600052604160045260246000fd5b6000601f19601f8301169050919050565b7f616c726561647920696e69746564000000000000000000000000000000000000600082015250565b6200090a8162000787565b81146200091657600080fd5b50565b61533980620009296000396000f3fe6080604052600436106101b65760003560e01c80634e1273f4116100ec578063b48ab8b61161008a578063d2a6b51a11610064578063d2a6b51a1461065c578063e985e9c514610685578063f242432a146106c2578063f2fde38b146106eb576101b6565b8063b48ab8b6146105b9578063bd85b039146105e2578063cd53d08e1461061f576101b6565b8063731133e9116100c6578063731133e9146105115780638da5cb5b1461053a57806395d89b4114610565578063a22cb46514610590576101b6565b80634e1273f4146104805780634f558e79146104bd578063715018a6146104fa576101b6565b806320379ee5116101595780632eb2c2d6116101335780632eb2c2d6146103c65780633408e470146103ef57806336a100d51461041a5780633adf80b414610457576101b6565b806320379ee5146103215780632693ebf21461034c5780632d0335ab14610389576101b6565b806306fdde031161019557806306fdde031461025e5780630c53c51c146102895780630e89341c146102b95780630f7e5970146102f6576101b6565b8062fdd58e146101bb57806301ffc9a7146101f857806302fe530514610235575b600080fd5b3480156101c757600080fd5b506101e260048036038101906101dd919061393b565b610714565b6040516101ef919061467e565b60405180910390f35b34801561020457600080fd5b5061021f600480360381019061021a9190613b05565b6107dd565b60405161022c91906142da565b60405180910390f35b34801561024157600080fd5b5061025c60048036038101906102579190613b80565b6108bf565b005b34801561026a57600080fd5b50610273610947565b60405161028091906143bc565b60405180910390f35b6102a3600480360381019061029e91906138ac565b6109d5565b6040516102b0919061439a565b60405180910390f35b3480156102c557600080fd5b506102e060048036038101906102db9190613bc1565b610c47565b6040516102ed91906143bc565b60405180910390f35b34801561030257600080fd5b5061030b610df1565b60405161031891906143bc565b60405180910390f35b34801561032d57600080fd5b50610336610e2a565b60405161034391906142f5565b60405180910390f35b34801561035857600080fd5b50610373600480360381019061036e9190613bc1565b610e34565b604051610380919061467e565b60405180910390f35b34801561039557600080fd5b506103b060048036038101906103ab91906135be565b610e4c565b6040516103bd919061467e565b60405180910390f35b3480156103d257600080fd5b506103ed60048036038101906103e89190613623565b610e95565b005b3480156103fb57600080fd5b5061040461128b565b604051610411919061467e565b60405180910390f35b34801561042657600080fd5b50610441600480360381019061043c91906139f2565b611298565b60405161044e919061467e565b60405180910390f35b34801561046357600080fd5b5061047e60048036038101906104799190613bea565b611453565b005b34801561048c57600080fd5b506104a760048036038101906104a29190613a99565b611561565b6040516104b49190614281565b60405180910390f35b3480156104c957600080fd5b506104e460048036038101906104df9190613bc1565b611712565b6040516104f191906142da565b60405180910390f35b34801561050657600080fd5b5061050f611724565b005b34801561051d57600080fd5b5061053860048036038101906105339190613977565b611861565b005b34801561054657600080fd5b5061054f61195a565b60405161055c9190614166565b60405180910390f35b34801561057157600080fd5b5061057a611984565b60405161058791906143bc565b60405180910390f35b34801561059c57600080fd5b506105b760048036038101906105b29190613870565b611a12565b005b3480156105c557600080fd5b506105e060048036038101906105db91906137c5565b611b93565b005b3480156105ee57600080fd5b5061060960048036038101906106049190613bc1565b611d36565b604051610616919061467e565b60405180910390f35b34801561062b57600080fd5b5061064660048036038101906106419190613bc1565b611d53565b6040516106539190614166565b60405180910390f35b34801561066857600080fd5b50610683600480360381019061067e9190613771565b611d86565b005b34801561069157600080fd5b506106ac60048036038101906106a791906135e7565b611e6a565b6040516106b991906142da565b60405180910390f35b3480156106ce57600080fd5b506106e960048036038101906106e491906136e2565b611f6c565b005b3480156106f757600080fd5b50610712600480360381019061070d91906135be565b612284565b005b60008073ffffffffffffffffffffffffffffffffffffffff168373ffffffffffffffffffffffffffffffffffffffff161415610785576040517f08c379a000000000000000000000000000000000000000000000000000000000815260040161077c9061445e565b60405180910390fd5b60008083815260200190815260200160002060008473ffffffffffffffffffffffffffffffffffffffff1673ffffffffffffffffffffffffffffffffffffffff16815260200190815260200160002054905092915050565b60007fd9b67a26000000000000000000000000000000000000000000000000000000007bffffffffffffffffffffffffffffffffffffffffffffffffffffffff1916827bffffffffffffffffffffffffffffffffffffffffffffffffffffffff191614806108a857507f0e89341c000000000000000000000000000000000000000000000000000000007bffffffffffffffffffffffffffffffffffffffffffffffffffffffff1916827bffffffffffffffffffffffffffffffffffffffffffffffffffffffff1916145b806108b857506108b7826124e1565b5b9050919050565b6108c761254b565b73ffffffffffffffffffffffffffffffffffffffff166108e561195a565b73ffffffffffffffffffffffffffffffffffffffff161461093b576040517f08c379a00000000000000000000000000000000000000000000000000000000081526004016109329061457e565b60405180910390fd5b6109448161255a565b50565b600b8054610954906149a3565b80601f0160208091040260200160405190810160405280929190818152602001828054610980906149a3565b80156109cd5780601f106109a2576101008083540402835291602001916109cd565b820191906000526020600020905b8154815290600101906020018083116109b057829003601f168201915b505050505081565b606060006040518060600160405280600560008a73ffffffffffffffffffffffffffffffffffffffff1673ffffffffffffffffffffffffffffffffffffffff1681526020019081526020016000205481526020018873ffffffffffffffffffffffffffffffffffffffff168152602001878152509050610a588782878787612574565b610a97576040517f08c379a0000000000000000000000000000000000000000000000000000000008152600401610a8e9061459e565b60405180910390fd5b610aea6001600560008a73ffffffffffffffffffffffffffffffffffffffff1673ffffffffffffffffffffffffffffffffffffffff1681526020019081526020016000205461267d90919063ffffffff16565b600560008973ffffffffffffffffffffffffffffffffffffffff1673ffffffffffffffffffffffffffffffffffffffff168152602001908152602001600020819055507f5845892132946850460bff5a0083f71031bc5bf9aadcd40f1de79423eac9b10b873388604051610b6093929190614181565b60405180910390a16000803073ffffffffffffffffffffffffffffffffffffffff16888a604051602001610b95929190614107565b604051602081830303815290604052604051610bb191906140f0565b6000604051808303816000865af19150503d8060008114610bee576040519150601f19603f3d011682016040523d82523d6000602084013e610bf3565b606091505b509150915081610c38576040517f08c379a0000000000000000000000000000000000000000000000000000000008152600401610c2f9061449e565b60405180910390fd5b80935050505095945050505050565b6060610c5282612693565b610c91576040517f08c379a0000000000000000000000000000000000000000000000000000000008152600401610c889061453e565b60405180910390fd5b6000600a60008481526020019081526020016000208054610cb1906149a3565b80601f0160208091040260200160405190810160405280929190818152602001828054610cdd906149a3565b8015610d2a5780601f10610cff57610100808354040283529160200191610d2a565b820191906000526020600020905b815481529060010190602001808311610d0d57829003601f168201915b50505050509050600081511115610ddf57600a60008481526020019081526020016000208054610d59906149a3565b80601f0160208091040260200160405190810160405280929190818152602001828054610d85906149a3565b8015610dd25780601f10610da757610100808354040283529160200191610dd2565b820191906000526020600020905b815481529060010190602001808311610db557829003601f168201915b5050505050915050610dec565b610de8836126ff565b9150505b919050565b6040518060400160405280600181526020017f310000000000000000000000000000000000000000000000000000000000000081525081565b6000600454905090565b60096020528060005260406000206000915090505481565b6000600560008373ffffffffffffffffffffffffffffffffffffffff1673ffffffffffffffffffffffffffffffffffffffff168152602001908152602001600020549050919050565b8151835114610ed9576040517f08c379a0000000000000000000000000000000000000000000000000000000008152600401610ed09061461e565b60405180910390fd5b600073ffffffffffffffffffffffffffffffffffffffff168473ffffffffffffffffffffffffffffffffffffffff161415610f49576040517f08c379a0000000000000000000000000000000000000000000000000000000008152600401610f40906144fe565b60405180910390fd5b610f5161254b565b73ffffffffffffffffffffffffffffffffffffffff168573ffffffffffffffffffffffffffffffffffffffff161480610f975750610f9685610f9161254b565b611e6a565b5b610fd6576040517f08c379a0000000000000000000000000000000000000000000000000000000008152600401610fcd9061451e565b60405180910390fd5b6000610fe061254b565b9050610ff0818787878787612793565b60005b84518110156111f6576000858281518110611037577f4e487b7100000000000000000000000000000000000000000000000000000000600052603260045260246000fd5b60200260200101519050600085838151811061107c577f4e487b7100000000000000000000000000000000000000000000000000000000600052603260045260246000fd5b60200260200101519050600080600084815260200190815260200160002060008b73ffffffffffffffffffffffffffffffffffffffff1673ffffffffffffffffffffffffffffffffffffffff1681526020019081526020016000205490508181101561111d576040517f08c379a00000000000000000000000000000000000000000000000000000000081526004016111149061455e565b60405180910390fd5b8181611129919061487e565b60008085815260200190815260200160002060008c73ffffffffffffffffffffffffffffffffffffffff1673ffffffffffffffffffffffffffffffffffffffff168152602001908152602001600020819055508160008085815260200190815260200160002060008b73ffffffffffffffffffffffffffffffffffffffff1673ffffffffffffffffffffffffffffffffffffffff16815260200190815260200160002060008282546111db9190614828565b92505081905550505050806111ef90614a06565b9050610ff3565b508473ffffffffffffffffffffffffffffffffffffffff168673ffffffffffffffffffffffffffffffffffffffff168273ffffffffffffffffffffffffffffffffffffffff167f4a39dc06d4c0dbc64b70af90fd698a233a518aa5d07e595d983b8c0526c8f7fb878760405161126d9291906142a3565b60405180910390a461128381878787878761279b565b505050505050565b6000804690508091505090565b60006112a261254b565b73ffffffffffffffffffffffffffffffffffffffff166112c061195a565b73ffffffffffffffffffffffffffffffffffffffff1614611316576040517f08c379a000000000000000000000000000000000000000000000000000000000815260040161130d9061457e565b60405180910390fd5b61131f85612693565b1561135f576040517f08c379a0000000000000000000000000000000000000000000000000000000008152600401611356906143fe565b60405180910390fd5b61136761254b565b6008600087815260200190815260200160002060006101000a81548173ffffffffffffffffffffffffffffffffffffffff021916908373ffffffffffffffffffffffffffffffffffffffff1602179055506000835111156114235782600a600087815260200190815260200160002090805190602001906113e9929190613277565b50847f6bb7ff708619ba0610cba295a58592e0451dee2622938c8755667688daf3529b8460405161141a91906143bc565b60405180910390a25b61142f86868685612982565b83600960008781526020019081526020016000208190555084905095945050505050565b8161145c61254b565b73ffffffffffffffffffffffffffffffffffffffff166008600083815260200190815260200160002060009054906101000a900473ffffffffffffffffffffffffffffffffffffffff1673ffffffffffffffffffffffffffffffffffffffff16146114fc576040517f08c379a00000000000000000000000000000000000000000000000000000000081526004016114f39061465e565b60405180910390fd5b81600a60008581526020019081526020016000209080519060200190611523929190613277565b50827f6bb7ff708619ba0610cba295a58592e0451dee2622938c8755667688daf3529b8360405161155491906143bc565b60405180910390a2505050565b606081518351146115a7576040517f08c379a000000000000000000000000000000000000000000000000000000000815260040161159e906145fe565b60405180910390fd5b6000835167ffffffffffffffff8111156115ea577f4e487b7100000000000000000000000000000000000000000000000000000000600052604160045260246000fd5b6040519080825280602002602001820160405280156116185781602001602082028036833780820191505090505b50905060005b8451811015611707576116b1858281518110611663577f4e487b7100000000000000000000000000000000000000000000000000000000600052603260045260246000fd5b60200260200101518583815181106116a4577f4e487b7100000000000000000000000000000000000000000000000000000000600052603260045260246000fd5b6020026020010151610714565b8282815181106116ea577f4e487b7100000000000000000000000000000000000000000000000000000000600052603260045260246000fd5b6020026020010181815250508061170090614a06565b905061161e565b508091505092915050565b600061171d82612693565b9050919050565b61172c61254b565b73ffffffffffffffffffffffffffffffffffffffff1661174a61195a565b73ffffffffffffffffffffffffffffffffffffffff16146117a0576040517f08c379a00000000000000000000000000000000000000000000000000000000081526004016117979061457e565b60405180910390fd5b600073ffffffffffffffffffffffffffffffffffffffff16600660009054906101000a900473ffffffffffffffffffffffffffffffffffffffff1673ffffffffffffffffffffffffffffffffffffffff167f8be0079c531659141344cd1fd0a4f28419497f9722a3daafe3b4186f6b6457e060405160405180910390a36000600660006101000a81548173ffffffffffffffffffffffffffffffffffffffff021916908373ffffffffffffffffffffffffffffffffffffffff160217905550565b8261186a61254b565b73ffffffffffffffffffffffffffffffffffffffff166008600083815260200190815260200160002060009054906101000a900473ffffffffffffffffffffffffffffffffffffffff1673ffffffffffffffffffffffffffffffffffffffff161461190a576040517f08c379a00000000000000000000000000000000000000000000000000000000081526004016119019061465e565b60405180910390fd5b61191685858585612982565b61193c83600960008781526020019081526020016000205461267d90919063ffffffff16565b60096000868152602001908152602001600020819055505050505050565b6000600660009054906101000a900473ffffffffffffffffffffffffffffffffffffffff16905090565b600c8054611991906149a3565b80601f01602080910402602001604051908101604052809291908181526020018280546119bd906149a3565b8015611a0a5780601f106119df57610100808354040283529160200191611a0a565b820191906000526020600020905b8154815290600101906020018083116119ed57829003601f168201915b505050505081565b8173ffffffffffffffffffffffffffffffffffffffff16611a3161254b565b73ffffffffffffffffffffffffffffffffffffffff161415611a88576040517f08c379a0000000000000000000000000000000000000000000000000000000008152600401611a7f906145de565b60405180910390fd5b8060016000611a9561254b565b73ffffffffffffffffffffffffffffffffffffffff1673ffffffffffffffffffffffffffffffffffffffff16815260200190815260200160002060008473ffffffffffffffffffffffffffffffffffffffff1673ffffffffffffffffffffffffffffffffffffffff16815260200190815260200160002060006101000a81548160ff0219169083151502179055508173ffffffffffffffffffffffffffffffffffffffff16611b4261254b565b73ffffffffffffffffffffffffffffffffffffffff167f17307eab39ab6107e8899845ad3d59bd9653f200f220920489ca2b5937696c3183604051611b8791906142da565b60405180910390a35050565b60005b8351811015611d23576000848281518110611bda577f4e487b7100000000000000000000000000000000000000000000000000000000600052603260045260246000fd5b60200260200101519050611bec61254b565b73ffffffffffffffffffffffffffffffffffffffff166008600083815260200190815260200160002060009054906101000a900473ffffffffffffffffffffffffffffffffffffffff1673ffffffffffffffffffffffffffffffffffffffff1614611c8c576040517f08c379a0000000000000000000000000000000000000000000000000000000008152600401611c839061443e565b60405180910390fd5b6000848381518110611cc7577f4e487b7100000000000000000000000000000000000000000000000000000000600052603260045260246000fd5b60200260200101519050611cf781600960008581526020019081526020016000205461267d90919063ffffffff16565b600960008481526020019081526020016000208190555050508080611d1b90614a06565b915050611b96565b50611d3084848484612b18565b50505050565b600060096000838152602001908152602001600020549050919050565b60086020528060005260406000206000915054906101000a900473ffffffffffffffffffffffffffffffffffffffff1681565b600073ffffffffffffffffffffffffffffffffffffffff168273ffffffffffffffffffffffffffffffffffffffff161415611df6576040517f08c379a0000000000000000000000000000000000000000000000000000000008152600401611ded906145be565b60405180910390fd5b60005b8151811015611e65576000828281518110611e3d577f4e487b7100000000000000000000000000000000000000000000000000000000600052603260045260246000fd5b60200260200101519050611e518482612d82565b508080611e5d90614a06565b915050611df9565b505050565b600080600760009054906101000a900473ffffffffffffffffffffffffffffffffffffffff1690508273ffffffffffffffffffffffffffffffffffffffff168173ffffffffffffffffffffffffffffffffffffffff1663c4552791866040518263ffffffff1660e01b8152600401611ee29190614166565b60206040518083038186803b158015611efa57600080fd5b505afa158015611f0e573d6000803e3d6000fd5b505050506040513d601f19601f82011682018060405250810190611f329190613b57565b73ffffffffffffffffffffffffffffffffffffffff161415611f58576001915050611f66565b611f628484612e82565b9150505b92915050565b600073ffffffffffffffffffffffffffffffffffffffff168473ffffffffffffffffffffffffffffffffffffffff161415611fdc576040517f08c379a0000000000000000000000000000000000000000000000000000000008152600401611fd3906144fe565b60405180910390fd5b611fe461254b565b73ffffffffffffffffffffffffffffffffffffffff168573ffffffffffffffffffffffffffffffffffffffff16148061202a57506120298561202461254b565b611e6a565b5b612069576040517f08c379a0000000000000000000000000000000000000000000000000000000008152600401612060906144be565b60405180910390fd5b600061207361254b565b905061209381878761208488612f16565b61208d88612f16565b87612793565b600080600086815260200190815260200160002060008873ffffffffffffffffffffffffffffffffffffffff1673ffffffffffffffffffffffffffffffffffffffff1681526020019081526020016000205490508381101561212a576040517f08c379a00000000000000000000000000000000000000000000000000000000081526004016121219061455e565b60405180910390fd5b8381612136919061487e565b60008087815260200190815260200160002060008973ffffffffffffffffffffffffffffffffffffffff1673ffffffffffffffffffffffffffffffffffffffff168152602001908152602001600020819055508360008087815260200190815260200160002060008873ffffffffffffffffffffffffffffffffffffffff1673ffffffffffffffffffffffffffffffffffffffff16815260200190815260200160002060008282546121e89190614828565b925050819055508573ffffffffffffffffffffffffffffffffffffffff168773ffffffffffffffffffffffffffffffffffffffff168373ffffffffffffffffffffffffffffffffffffffff167fc3d58168c5ae7397731d063d5bbf3d657854427343f4c083240f7aacaa2d0f628888604051612265929190614699565b60405180910390a461227b828888888888612fdc565b50505050505050565b61228c61254b565b73ffffffffffffffffffffffffffffffffffffffff166122aa61195a565b73ffffffffffffffffffffffffffffffffffffffff1614612300576040517f08c379a00000000000000000000000000000000000000000000000000000000081526004016122f79061457e565b60405180910390fd5b600073ffffffffffffffffffffffffffffffffffffffff168173ffffffffffffffffffffffffffffffffffffffff161415612370576040517f08c379a00000000000000000000000000000000000000000000000000000000081526004016123679061447e565b60405180910390fd5b8073ffffffffffffffffffffffffffffffffffffffff16600660009054906101000a900473ffffffffffffffffffffffffffffffffffffffff1673ffffffffffffffffffffffffffffffffffffffff167f8be0079c531659141344cd1fd0a4f28419497f9722a3daafe3b4186f6b6457e060405160405180910390a380600660006101000a81548173ffffffffffffffffffffffffffffffffffffffff021916908373ffffffffffffffffffffffffffffffffffffffff16021790555050565b60003073ffffffffffffffffffffffffffffffffffffffff163373ffffffffffffffffffffffffffffffffffffffff1614156124da57600080368080601f016020809104026020016040519081016040528093929190818152602001838380828437600081840152601f19601f820116905080830192505050505050509050600080369050905073ffffffffffffffffffffffffffffffffffffffff8183015116925050506124de565b3390505b90565b60007f01ffc9a7000000000000000000000000000000000000000000000000000000007bffffffffffffffffffffffffffffffffffffffffffffffffffffffff1916827bffffffffffffffffffffffffffffffffffffffffffffffffffffffff1916149050919050565b6000612555612430565b905090565b8060029080519060200190612570929190613277565b5050565b60008073ffffffffffffffffffffffffffffffffffffffff168673ffffffffffffffffffffffffffffffffffffffff1614156125e5576040517f08c379a00000000000000000000000000000000000000000000000000000000081526004016125dc906144de565b60405180910390fd5b60016125f86125f3876131c3565b61322b565b838686604051600081526020016040526040516126189493929190614355565b6020604051602081039080840390855afa15801561263a573d6000803e3d6000fd5b5050506020604051035173ffffffffffffffffffffffffffffffffffffffff168673ffffffffffffffffffffffffffffffffffffffff1614905095945050505050565b6000818361268b9190614828565b905092915050565b60008073ffffffffffffffffffffffffffffffffffffffff166008600084815260200190815260200160002060009054906101000a900473ffffffffffffffffffffffffffffffffffffffff1673ffffffffffffffffffffffffffffffffffffffff1614159050919050565b60606002805461270e906149a3565b80601f016020809104026020016040519081016040528092919081815260200182805461273a906149a3565b80156127875780601f1061275c57610100808354040283529160200191612787565b820191906000526020600020905b81548152906001019060200180831161276a57829003601f168201915b50505050509050919050565b505050505050565b6127ba8473ffffffffffffffffffffffffffffffffffffffff16613264565b1561297a578373ffffffffffffffffffffffffffffffffffffffff1663bc197c8187878686866040518663ffffffff1660e01b81526004016128009594939291906141bf565b602060405180830381600087803b15801561281a57600080fd5b505af192505050801561284b57506040513d601f19601f820116820180604052508101906128489190613b2e565b60015b6128f157612857614b0a565b806308c379a014156128b4575061286c615189565b8061287757506128b6565b806040517f08c379a00000000000000000000000000000000000000000000000000000000081526004016128ab91906143bc565b60405180910390fd5b505b6040517f08c379a00000000000000000000000000000000000000000000000000000000081526004016128e8906143de565b60405180910390fd5b63bc197c8160e01b7bffffffffffffffffffffffffffffffffffffffffffffffffffffffff1916817bffffffffffffffffffffffffffffffffffffffffffffffffffffffff191614612978576040517f08c379a000000000000000000000000000000000000000000000000000000000815260040161296f9061441e565b60405180910390fd5b505b505050505050565b600073ffffffffffffffffffffffffffffffffffffffff168473ffffffffffffffffffffffffffffffffffffffff1614156129f2576040517f08c379a00000000000000000000000000000000000000000000000000000000081526004016129e99061463e565b60405180910390fd5b60006129fc61254b565b9050612a1d81600087612a0e88612f16565b612a1788612f16565b87612793565b8260008086815260200190815260200160002060008773ffffffffffffffffffffffffffffffffffffffff1673ffffffffffffffffffffffffffffffffffffffff1681526020019081526020016000206000828254612a7c9190614828565b925050819055508473ffffffffffffffffffffffffffffffffffffffff16600073ffffffffffffffffffffffffffffffffffffffff168273ffffffffffffffffffffffffffffffffffffffff167fc3d58168c5ae7397731d063d5bbf3d657854427343f4c083240f7aacaa2d0f628787604051612afa929190614699565b60405180910390a4612b1181600087878787612fdc565b5050505050565b600073ffffffffffffffffffffffffffffffffffffffff168473ffffffffffffffffffffffffffffffffffffffff161415612b88576040517f08c379a0000000000000000000000000000000000000000000000000000000008152600401612b7f9061463e565b60405180910390fd5b8151835114612bcc576040517f08c379a0000000000000000000000000000000000000000000000000000000008152600401612bc39061461e565b60405180910390fd5b6000612bd661254b565b9050612be781600087878787612793565b60005b8451811015612cec57838181518110612c2c577f4e487b7100000000000000000000000000000000000000000000000000000000600052603260045260246000fd5b6020026020010151600080878481518110612c70577f4e487b7100000000000000000000000000000000000000000000000000000000600052603260045260246000fd5b6020026020010151815260200190815260200160002060008873ffffffffffffffffffffffffffffffffffffffff1673ffffffffffffffffffffffffffffffffffffffff1681526020019081526020016000206000828254612cd29190614828565b925050819055508080612ce490614a06565b915050612bea565b508473ffffffffffffffffffffffffffffffffffffffff16600073ffffffffffffffffffffffffffffffffffffffff168273ffffffffffffffffffffffffffffffffffffffff167f4a39dc06d4c0dbc64b70af90fd698a233a518aa5d07e595d983b8c0526c8f7fb8787604051612d649291906142a3565b60405180910390a4612d7b8160008787878761279b565b5050505050565b80612d8b61254b565b73ffffffffffffffffffffffffffffffffffffffff166008600083815260200190815260200160002060009054906101000a900473ffffffffffffffffffffffffffffffffffffffff1673ffffffffffffffffffffffffffffffffffffffff1614612e2b576040517f08c379a0000000000000000000000000000000000000000000000000000000008152600401612e229061465e565b60405180910390fd5b826008600084815260200190815260200160002060006101000a81548173ffffffffffffffffffffffffffffffffffffffff021916908373ffffffffffffffffffffffffffffffffffffffff160217905550505050565b6000600160008473ffffffffffffffffffffffffffffffffffffffff1673ffffffffffffffffffffffffffffffffffffffff16815260200190815260200160002060008373ffffffffffffffffffffffffffffffffffffffff1673ffffffffffffffffffffffffffffffffffffffff16815260200190815260200160002060009054906101000a900460ff16905092915050565b60606000600167ffffffffffffffff811115612f5b577f4e487b7100000000000000000000000000000000000000000000000000000000600052604160045260246000fd5b604051908082528060200260200182016040528015612f895781602001602082028036833780820191505090505b5090508281600081518110612fc7577f4e487b7100000000000000000000000000000000000000000000000000000000600052603260045260246000fd5b60200260200101818152505080915050919050565b612ffb8473ffffffffffffffffffffffffffffffffffffffff16613264565b156131bb578373ffffffffffffffffffffffffffffffffffffffff1663f23a6e6187878686866040518663ffffffff1660e01b8152600401613041959493929190614227565b602060405180830381600087803b15801561305b57600080fd5b505af192505050801561308c57506040513d601f19601f820116820180604052508101906130899190613b2e565b60015b61313257613098614b0a565b806308c379a014156130f557506130ad615189565b806130b857506130f7565b806040517f08c379a00000000000000000000000000000000000000000000000000000000081526004016130ec91906143bc565b60405180910390fd5b505b6040517f08c379a0000000000000000000000000000000000000000000000000000000008152600401613129906143de565b60405180910390fd5b63f23a6e6160e01b7bffffffffffffffffffffffffffffffffffffffffffffffffffffffff1916817bffffffffffffffffffffffffffffffffffffffffffffffffffffffff1916146131b9576040517f08c379a00000000000000000000000000000000000000000000000000000000081526004016131b09061441e565b60405180910390fd5b505b505050505050565b60006040518060800160405280604381526020016152c160439139805190602001208260000151836020015184604001518051906020012060405160200161320e9493929190614310565b604051602081830303815290604052805190602001209050919050565b6000613235610e2a565b8260405160200161324792919061412f565b604051602081830303815290604052805190602001209050919050565b600080823b905060008111915050919050565b828054613283906149a3565b90600052602060002090601f0160209004810192826132a557600085556132ec565b82601f106132be57805160ff19168380011785556132ec565b828001600101855582156132ec579182015b828111156132eb5782518255916020019190600101906132d0565b5b5090506132f991906132fd565b5090565b5b808211156133165760008160009055506001016132fe565b5090565b600061332d613328846146e7565b6146c2565b9050808382526020820190508285602086028201111561334c57600080fd5b60005b8581101561337c5781613362888261346e565b84526020840193506020830192505060018101905061334f565b5050509392505050565b600061339961339484614713565b6146c2565b905080838252602082019050828560208602820111156133b857600080fd5b60005b858110156133e857816133ce8882613594565b8452602084019350602083019250506001810190506133bb565b5050509392505050565b60006134056134008461473f565b6146c2565b90508281526020810184848401111561341d57600080fd5b613428848285614961565b509392505050565b600061344361343e84614770565b6146c2565b90508281526020810184848401111561345b57600080fd5b613466848285614961565b509392505050565b60008135905061347d8161521f565b92915050565b600082601f83011261349457600080fd5b81356134a484826020860161331a565b91505092915050565b600082601f8301126134be57600080fd5b81356134ce848260208601613386565b91505092915050565b6000813590506134e681615236565b92915050565b6000813590506134fb8161524d565b92915050565b60008135905061351081615264565b92915050565b60008151905061352581615264565b92915050565b600082601f83011261353c57600080fd5b813561354c8482602086016133f2565b91505092915050565b6000815190506135648161527b565b92915050565b600082601f83011261357b57600080fd5b813561358b848260208601613430565b91505092915050565b6000813590506135a381615292565b92915050565b6000813590506135b8816152a9565b92915050565b6000602082840312156135d057600080fd5b60006135de8482850161346e565b91505092915050565b600080604083850312156135fa57600080fd5b60006136088582860161346e565b92505060206136198582860161346e565b9150509250929050565b600080600080600060a0868803121561363b57600080fd5b60006136498882890161346e565b955050602061365a8882890161346e565b945050604086013567ffffffffffffffff81111561367757600080fd5b613683888289016134ad565b935050606086013567ffffffffffffffff8111156136a057600080fd5b6136ac888289016134ad565b925050608086013567ffffffffffffffff8111156136c957600080fd5b6136d58882890161352b565b9150509295509295909350565b600080600080600060a086880312156136fa57600080fd5b60006137088882890161346e565b95505060206137198882890161346e565b945050604061372a88828901613594565b935050606061373b88828901613594565b925050608086013567ffffffffffffffff81111561375857600080fd5b6137648882890161352b565b9150509295509295909350565b6000806040838503121561378457600080fd5b60006137928582860161346e565b925050602083013567ffffffffffffffff8111156137af57600080fd5b6137bb858286016134ad565b9150509250929050565b600080600080608085870312156137db57600080fd5b60006137e98782880161346e565b945050602085013567ffffffffffffffff81111561380657600080fd5b613812878288016134ad565b935050604085013567ffffffffffffffff81111561382f57600080fd5b61383b878288016134ad565b925050606085013567ffffffffffffffff81111561385857600080fd5b6138648782880161352b565b91505092959194509250565b6000806040838503121561388357600080fd5b60006138918582860161346e565b92505060206138a2858286016134d7565b9150509250929050565b600080600080600060a086880312156138c457600080fd5b60006138d28882890161346e565b955050602086013567ffffffffffffffff8111156138ef57600080fd5b6138fb8882890161352b565b945050604061390c888289016134ec565b935050606061391d888289016134ec565b925050608061392e888289016135a9565b9150509295509295909350565b6000806040838503121561394e57600080fd5b600061395c8582860161346e565b925050602061396d85828601613594565b9150509250929050565b6000806000806080858703121561398d57600080fd5b600061399b8782880161346e565b94505060206139ac87828801613594565b93505060406139bd87828801613594565b925050606085013567ffffffffffffffff8111156139da57600080fd5b6139e68782880161352b565b91505092959194509250565b600080600080600060a08688031215613a0a57600080fd5b6000613a188882890161346e565b9550506020613a2988828901613594565b9450506040613a3a88828901613594565b935050606086013567ffffffffffffffff811115613a5757600080fd5b613a638882890161356a565b925050608086013567ffffffffffffffff811115613a8057600080fd5b613a8c8882890161352b565b9150509295509295909350565b60008060408385031215613aac57600080fd5b600083013567ffffffffffffffff811115613ac657600080fd5b613ad285828601613483565b925050602083013567ffffffffffffffff811115613aef57600080fd5b613afb858286016134ad565b9150509250929050565b600060208284031215613b1757600080fd5b6000613b2584828501613501565b91505092915050565b600060208284031215613b4057600080fd5b6000613b4e84828501613516565b91505092915050565b600060208284031215613b6957600080fd5b6000613b7784828501613555565b91505092915050565b600060208284031215613b9257600080fd5b600082013567ffffffffffffffff811115613bac57600080fd5b613bb88482850161356a565b91505092915050565b600060208284031215613bd357600080fd5b6000613be184828501613594565b91505092915050565b60008060408385031215613bfd57600080fd5b6000613c0b85828601613594565b925050602083013567ffffffffffffffff811115613c2857600080fd5b613c348582860161356a565b9150509250929050565b6000613c4a83836140c3565b60208301905092915050565b613c5f816148c4565b82525050565b613c6e816148b2565b82525050565b613c85613c80826148b2565b614a4f565b82525050565b6000613c96826147b1565b613ca081856147df565b9350613cab836147a1565b8060005b83811015613cdc578151613cc38882613c3e565b9750613cce836147d2565b925050600181019050613caf565b5085935050505092915050565b613cf2816148d6565b82525050565b613d01816148e2565b82525050565b613d18613d13826148e2565b614a61565b82525050565b6000613d29826147bc565b613d3381856147f0565b9350613d43818560208601614970565b613d4c81614b2c565b840191505092915050565b6000613d62826147bc565b613d6c8185614801565b9350613d7c818560208601614970565b80840191505092915050565b6000613d93826147c7565b613d9d818561480c565b9350613dad818560208601614970565b613db681614b2c565b840191505092915050565b6000613dce60348361480c565b9150613dd982614b57565b604082019050919050565b6000613df160188361480c565b9150613dfc82614ba6565b602082019050919050565b6000613e1460288361480c565b9150613e1f82614bcf565b604082019050919050565b6000613e37602f8361480c565b9150613e4282614c1e565b604082019050919050565b6000613e5a602b8361480c565b9150613e6582614c6d565b604082019050919050565b6000613e7d60268361480c565b9150613e8882614cbc565b604082019050919050565b6000613ea0601c8361480c565b9150613eab82614d0b565b602082019050919050565b6000613ec360028361481d565b9150613ece82614d34565b600282019050919050565b6000613ee660298361480c565b9150613ef182614d5d565b604082019050919050565b6000613f0960258361480c565b9150613f1482614dac565b604082019050919050565b6000613f2c60258361480c565b9150613f3782614dfb565b604082019050919050565b6000613f4f60328361480c565b9150613f5a82614e4a565b604082019050919050565b6000613f7260268361480c565b9150613f7d82614e99565b604082019050919050565b6000613f95602a8361480c565b9150613fa082614ee8565b604082019050919050565b6000613fb860208361480c565b9150613fc382614f37565b602082019050919050565b6000613fdb60218361480c565b9150613fe682614f60565b604082019050919050565b6000613ffe602c8361480c565b915061400982614faf565b604082019050919050565b600061402160298361480c565b915061402c82614ffe565b604082019050919050565b600061404460298361480c565b915061404f8261504d565b604082019050919050565b600061406760288361480c565b91506140728261509c565b604082019050919050565b600061408a60218361480c565b9150614095826150eb565b604082019050919050565b60006140ad60318361480c565b91506140b88261513a565b604082019050919050565b6140cc8161494a565b82525050565b6140db8161494a565b82525050565b6140ea81614954565b82525050565b60006140fc8284613d57565b915081905092915050565b60006141138285613d57565b915061411f8284613c74565b6014820191508190509392505050565b600061413a82613eb6565b91506141468285613d07565b6020820191506141568284613d07565b6020820191508190509392505050565b600060208201905061417b6000830184613c65565b92915050565b60006060820190506141966000830186613c65565b6141a36020830185613c56565b81810360408301526141b58184613d1e565b9050949350505050565b600060a0820190506141d46000830188613c65565b6141e16020830187613c65565b81810360408301526141f38186613c8b565b905081810360608301526142078185613c8b565b9050818103608083015261421b8184613d1e565b90509695505050505050565b600060a08201905061423c6000830188613c65565b6142496020830187613c65565b61425660408301866140d2565b61426360608301856140d2565b81810360808301526142758184613d1e565b90509695505050505050565b6000602082019050818103600083015261429b8184613c8b565b905092915050565b600060408201905081810360008301526142bd8185613c8b565b905081810360208301526142d18184613c8b565b90509392505050565b60006020820190506142ef6000830184613ce9565b92915050565b600060208201905061430a6000830184613cf8565b92915050565b60006080820190506143256000830187613cf8565b61433260208301866140d2565b61433f6040830185613c65565b61434c6060830184613cf8565b95945050505050565b600060808201905061436a6000830187613cf8565b61437760208301866140e1565b6143846040830185613cf8565b6143916060830184613cf8565b95945050505050565b600060208201905081810360008301526143b48184613d1e565b905092915050565b600060208201905081810360008301526143d68184613d88565b905092915050565b600060208201905081810360008301526143f781613dc1565b9050919050565b6000602082019050818103600083015261441781613de4565b9050919050565b6000602082019050818103600083015261443781613e07565b9050919050565b6000602082019050818103600083015261445781613e2a565b9050919050565b6000602082019050818103600083015261447781613e4d565b9050919050565b6000602082019050818103600083015261449781613e70565b9050919050565b600060208201905081810360008301526144b781613e93565b9050919050565b600060208201905081810360008301526144d781613ed9565b9050919050565b600060208201905081810360008301526144f781613efc565b9050919050565b6000602082019050818103600083015261451781613f1f565b9050919050565b6000602082019050818103600083015261453781613f42565b9050919050565b6000602082019050818103600083015261455781613f65565b9050919050565b6000602082019050818103600083015261457781613f88565b9050919050565b6000602082019050818103600083015261459781613fab565b9050919050565b600060208201905081810360008301526145b781613fce565b9050919050565b600060208201905081810360008301526145d781613ff1565b9050919050565b600060208201905081810360008301526145f781614014565b9050919050565b6000602082019050818103600083015261461781614037565b9050919050565b600060208201905081810360008301526146378161405a565b9050919050565b600060208201905081810360008301526146578161407d565b9050919050565b60006020820190508181036000830152614677816140a0565b9050919050565b600060208201905061469360008301846140d2565b92915050565b60006040820190506146ae60008301856140d2565b6146bb60208301846140d2565b9392505050565b60006146cc6146dd565b90506146d882826149d5565b919050565b6000604051905090565b600067ffffffffffffffff82111561470257614701614adb565b5b602082029050602081019050919050565b600067ffffffffffffffff82111561472e5761472d614adb565b5b602082029050602081019050919050565b600067ffffffffffffffff82111561475a57614759614adb565b5b61476382614b2c565b9050602081019050919050565b600067ffffffffffffffff82111561478b5761478a614adb565b5b61479482614b2c565b9050602081019050919050565b6000819050602082019050919050565b600081519050919050565b600081519050919050565b600081519050919050565b6000602082019050919050565b600082825260208201905092915050565b600082825260208201905092915050565b600081905092915050565b600082825260208201905092915050565b600081905092915050565b60006148338261494a565b915061483e8361494a565b9250827fffffffffffffffffffffffffffffffffffffffffffffffffffffffffffffffff0382111561487357614872614a7d565b5b828201905092915050565b60006148898261494a565b91506148948361494a565b9250828210156148a7576148a6614a7d565b5b828203905092915050565b60006148bd8261492a565b9050919050565b60006148cf8261492a565b9050919050565b60008115159050919050565b6000819050919050565b60007fffffffff0000000000000000000000000000000000000000000000000000000082169050919050565b6000614923826148b2565b9050919050565b600073ffffffffffffffffffffffffffffffffffffffff82169050919050565b6000819050919050565b600060ff82169050919050565b82818337600083830152505050565b60005b8381101561498e578082015181840152602081019050614973565b8381111561499d576000848401525b50505050565b600060028204905060018216806149bb57607f821691505b602082108114156149cf576149ce614aac565b5b50919050565b6149de82614b2c565b810181811067ffffffffffffffff821117156149fd576149fc614adb565b5b80604052505050565b6000614a118261494a565b91507fffffffffffffffffffffffffffffffffffffffffffffffffffffffffffffffff821415614a4457614a43614a7d565b5b600182019050919050565b6000614a5a82614a6b565b9050919050565b6000819050919050565b6000614a7682614b3d565b9050919050565b7f4e487b7100000000000000000000000000000000000000000000000000000000600052601160045260246000fd5b7f4e487b7100000000000000000000000000000000000000000000000000000000600052602260045260246000fd5b7f4e487b7100000000000000000000000000000000000000000000000000000000600052604160045260246000fd5b600060033d1115614b295760046000803e614b26600051614b4a565b90505b90565b6000601f19601f8301169050919050565b60008160601b9050919050565b60008160e01c9050919050565b7f455243313135353a207472616e7366657220746f206e6f6e204552433131353560008201527f526563656976657220696d706c656d656e746572000000000000000000000000602082015250565b7f746f6b656e205f696420616c7265616479206578697374730000000000000000600082015250565b7f455243313135353a204552433131353552656365697665722072656a6563746560008201527f6420746f6b656e73000000000000000000000000000000000000000000000000602082015250565b7f455243313135355472616461626c652362617463684d696e743a204f4e4c595f60008201527f43524541544f525f414c4c4f5745440000000000000000000000000000000000602082015250565b7f455243313135353a2062616c616e636520717565727920666f7220746865207a60008201527f65726f2061646472657373000000000000000000000000000000000000000000602082015250565b7f4f776e61626c653a206e6577206f776e657220697320746865207a65726f206160008201527f6464726573730000000000000000000000000000000000000000000000000000602082015250565b7f46756e6374696f6e2063616c6c206e6f74207375636365737366756c00000000600082015250565b7f1901000000000000000000000000000000000000000000000000000000000000600082015250565b7f455243313135353a2063616c6c6572206973206e6f74206f776e6572206e6f7260008201527f20617070726f7665640000000000000000000000000000000000000000000000602082015250565b7f4e61746976654d6574615472616e73616374696f6e3a20494e56414c49445f5360008201527f49474e4552000000000000000000000000000000000000000000000000000000602082015250565b7f455243313135353a207472616e7366657220746f20746865207a65726f20616460008201527f6472657373000000000000000000000000000000000000000000000000000000602082015250565b7f455243313135353a207472616e736665722063616c6c6572206973206e6f742060008201527f6f776e6572206e6f7220617070726f7665640000000000000000000000000000602082015250565b7f455243313135355472616461626c65237572693a204e4f4e4558495354454e5460008201527f5f544f4b454e0000000000000000000000000000000000000000000000000000602082015250565b7f455243313135353a20696e73756666696369656e742062616c616e636520666f60008201527f72207472616e7366657200000000000000000000000000000000000000000000602082015250565b7f4f776e61626c653a2063616c6c6572206973206e6f7420746865206f776e6572600082015250565b7f5369676e657220616e64207369676e617475726520646f206e6f74206d61746360008201527f6800000000000000000000000000000000000000000000000000000000000000602082015250565b7f455243313135355472616461626c652373657443726561746f723a20494e564160008201527f4c49445f414444524553532e0000000000000000000000000000000000000000602082015250565b7f455243313135353a2073657474696e6720617070726f76616c2073746174757360008201527f20666f722073656c660000000000000000000000000000000000000000000000602082015250565b7f455243313135353a206163636f756e747320616e6420696473206c656e67746860008201527f206d69736d617463680000000000000000000000000000000000000000000000602082015250565b7f455243313135353a2069647320616e6420616d6f756e7473206c656e6774682060008201527f6d69736d61746368000000000000000000000000000000000000000000000000602082015250565b7f455243313135353a206d696e7420746f20746865207a65726f2061646472657360008201527f7300000000000000000000000000000000000000000000000000000000000000602082015250565b7f455243313135355472616461626c652363726561746f724f6e6c793a204f4e4c60008201527f595f43524541544f525f414c4c4f574544000000000000000000000000000000602082015250565b600060443d10156151995761521c565b6151a16146dd565b60043d036004823e80513d602482011167ffffffffffffffff821117156151c957505061521c565b808201805167ffffffffffffffff8111156151e7575050505061521c565b80602083010160043d03850181111561520457505050505061521c565b615213826020018501866149d5565b82955050505050505b90565b615228816148b2565b811461523357600080fd5b50565b61523f816148d6565b811461524a57600080fd5b50565b615256816148e2565b811461526157600080fd5b50565b61526d816148ec565b811461527857600080fd5b50565b61528481614918565b811461528f57600080fd5b50565b61529b8161494a565b81146152a657600080fd5b50565b6152b281614954565b81146152bd57600080fd5b5056fe4d6574615472616e73616374696f6e2875696e74323536206e6f6e63652c616464726573732066726f6d2c62797465732066756e6374696f6e5369676e617475726529a2646970667358221220d6d1866eee57eede4e4aff2f94faba747387e5ca51f616f30a8d2296caab1ac764736f6c63430008040033454950373132446f6d61696e28737472696e67206e616d652c737472696e672076657273696f6e2c6164647265737320766572696679696e67436f6e74726163742c627974657333322073616c7429",
  "linkReferences": {},
  "deployedLinkReferences": {}
}