{
  "_format": "hh-sol-artifact-1",
  "contractName": "PhysicalStorage",
  "sourceName": "contracts/PhysicalStorage.sol",
  "abi": [
    {
      "anonymous": false,
      "inputs": [
        {
          "indexed": false,
          "internalType": "uint256",
          "name": "_xPos",
          "type": "uint256"
        },
        {
          "indexed": false,
          "internalType": "uint256",
          "name": "_yPos",
          "type": "uint256"
        },
        {
          "indexed": false,
          "internalType": "bytes",
          "name": "_name",
          "type": "bytes"
        },
        {
          "indexed": false,
          "internalType": "bytes",
          "name": "_image",
          "type": "bytes"
        }
      ],
      "name": "AddPhysical",
      "type": "event"
    },
    {
      "anonymous": false,
      "inputs": [
        {
          "indexed": true,
          "internalType": "address",
          "name": "previousOwner",
          "type": "address"
        },
        {
          "indexed": true,
          "internalType": "address",
          "name": "newOwner",
          "type": "address"
        }
      ],
      "name": "OwnershipTransferred",
      "type": "event"
    },
    {
      "inputs": [
        {
          "internalType": "uint256",
          "name": "_xPos",
          "type": "uint256"
        },
        {
          "internalType": "uint256",
          "name": "_yPos",
          "type": "uint256"
        },
        {
          "internalType": "uint256",
          "name": "_id",
          "type": "uint256"
        },
        {
          "internalType": "bytes",
          "name": "_name",
          "type": "bytes"
        },
        {
          "internalType": "bytes",
          "name": "_image",
          "type": "bytes"
        }
      ],
      "name": "addPhysicalInfo",
      "outputs": [],
      "stateMutability": "nonpayable",
      "type": "function"
    },
    {
      "inputs": [],
      "name": "getAllPhysicalInfos",
      "outputs": [
        {
          "components": [
            {
              "internalType": "uint256",
              "name": "xPos",
              "type": "uint256"
            },
            {
              "internalType": "uint256",
              "name": "yPos",
              "type": "uint256"
            },
            {
              "internalType": "uint256",
              "name": "id",
              "type": "uint256"
            },
            {
              "internalType": "bytes",
              "name": "name",
              "type": "bytes"
            },
            {
              "internalType": "bytes",
              "name": "image",
              "type": "bytes"
            }
          ],
          "internalType": "struct PhysicalStorage.Physical[]",
          "name": "",
          "type": "tuple[]"
        }
      ],
      "stateMutability": "view",
      "type": "function"
    },
    {
      "inputs": [],
      "name": "owner",
      "outputs": [
        {
          "internalType": "address",
          "name": "",
          "type": "address"
        }
      ],
      "stateMutability": "view",
      "type": "function"
    },
    {
      "inputs": [],
      "name": "renounceOwnership",
      "outputs": [],
      "stateMutability": "nonpayable",
      "type": "function"
    },
    {
      "inputs": [
        {
          "internalType": "address",
          "name": "newOwner",
          "type": "address"
        }
      ],
      "name": "transferOwnership",
      "outputs": [],
      "stateMutability": "nonpayable",
      "type": "function"
    }
  ],
  "bytecode": "0x608060405234801561001057600080fd5b5060006100216100c460201b60201c565b9050806000806101000a81548173ffffffffffffffffffffffffffffffffffffffff021916908373ffffffffffffffffffffffffffffffffffffffff1602179055508073ffffffffffffffffffffffffffffffffffffffff16600073ffffffffffffffffffffffffffffffffffffffff167f8be0079c531659141344cd1fd0a4f28419497f9722a3daafe3b4186f6b6457e060405160405180910390a3506100cc565b600033905090565b610e6f806100db6000396000f3fe608060405234801561001057600080fd5b50600436106100575760003560e01c806308d44d421461005c578063715018a61461007a5780638da5cb5b146100845780639a34ad27146100a2578063f2fde38b146100be575b600080fd5b6100646100da565b6040516100719190610b73565b60405180910390f35b61008261027b565b005b61008c6103b5565b6040516100999190610b58565b60405180910390f35b6100bc60048036038101906100b791906108c9565b6103de565b005b6100d860048036038101906100d391906108a0565b6105d8565b005b60606001805480602002602001604051908101604052809291908181526020016000905b8282101561027257838290600052602060002090600502016040518060a001604052908160008201548152602001600182015481526020016002820154815260200160038201805461014f90610d21565b80601f016020809104026020016040519081016040528092919081815260200182805461017b90610d21565b80156101c85780601f1061019d576101008083540402835291602001916101c8565b820191906000526020600020905b8154815290600101906020018083116101ab57829003601f168201915b505050505081526020016004820180546101e190610d21565b80601f016020809104026020016040519081016040528092919081815260200182805461020d90610d21565b801561025a5780601f1061022f5761010080835404028352916020019161025a565b820191906000526020600020905b81548152906001019060200180831161023d57829003601f168201915b505050505081525050815260200190600101906100fe565b50505050905090565b610283610781565b73ffffffffffffffffffffffffffffffffffffffff166102a16103b5565b73ffffffffffffffffffffffffffffffffffffffff16146102f7576040517f08c379a00000000000000000000000000000000000000000000000000000000081526004016102ee90610bb5565b60405180910390fd5b600073ffffffffffffffffffffffffffffffffffffffff1660008054906101000a900473ffffffffffffffffffffffffffffffffffffffff1673ffffffffffffffffffffffffffffffffffffffff167f8be0079c531659141344cd1fd0a4f28419497f9722a3daafe3b4186f6b6457e060405160405180910390a360008060006101000a81548173ffffffffffffffffffffffffffffffffffffffff021916908373ffffffffffffffffffffffffffffffffffffffff160217905550565b60008060009054906101000a900473ffffffffffffffffffffffffffffffffffffffff16905090565b6103e6610781565b73ffffffffffffffffffffffffffffffffffffffff166104046103b5565b73ffffffffffffffffffffffffffffffffffffffff161461045a576040517f08c379a000000000000000000000000000000000000000000000000000000000815260040161045190610bb5565b60405180910390fd5b60016040518060a0016040528089815260200188815260200187815260200186868080601f016020809104026020016040519081016040528093929190818152602001838380828437600081840152601f19601f82011690508083019250505050505050815260200184848080601f016020809104026020016040519081016040528093929190818152602001838380828437600081840152601f19601f820116905080830192505050505050508152509080600181540180825580915050600190039060005260206000209060050201600090919091909150600082015181600001556020820151816001015560408201518160020155606082015181600301908051906020019061056e929190610789565b50608082015181600401908051906020019061058b929190610789565b5050507f684b92a7fca2cdccd91ed6c6ffc8eaae88b842a5b761425f8b221f9e753dd9c38787868686866040516105c796959493929190610bd5565b60405180910390a150505050505050565b6105e0610781565b73ffffffffffffffffffffffffffffffffffffffff166105fe6103b5565b73ffffffffffffffffffffffffffffffffffffffff1614610654576040517f08c379a000000000000000000000000000000000000000000000000000000000815260040161064b90610bb5565b60405180910390fd5b600073ffffffffffffffffffffffffffffffffffffffff168173ffffffffffffffffffffffffffffffffffffffff1614156106c4576040517f08c379a00000000000000000000000000000000000000000000000000000000081526004016106bb90610b95565b60405180910390fd5b8073ffffffffffffffffffffffffffffffffffffffff1660008054906101000a900473ffffffffffffffffffffffffffffffffffffffff1673ffffffffffffffffffffffffffffffffffffffff167f8be0079c531659141344cd1fd0a4f28419497f9722a3daafe3b4186f6b6457e060405160405180910390a3806000806101000a81548173ffffffffffffffffffffffffffffffffffffffff021916908373ffffffffffffffffffffffffffffffffffffffff16021790555050565b600033905090565b82805461079590610d21565b90600052602060002090601f0160209004810192826107b757600085556107fe565b82601f106107d057805160ff19168380011785556107fe565b828001600101855582156107fe579182015b828111156107fd5782518255916020019190600101906107e2565b5b50905061080b919061080f565b5090565b5b80821115610828576000816000905550600101610810565b5090565b60008135905061083b81610e0b565b92915050565b60008083601f84011261085357600080fd5b8235905067ffffffffffffffff81111561086c57600080fd5b60208301915083600182028301111561088457600080fd5b9250929050565b60008135905061089a81610e22565b92915050565b6000602082840312156108b257600080fd5b60006108c08482850161082c565b91505092915050565b600080600080600080600060a0888a0312156108e457600080fd5b60006108f28a828b0161088b565b97505060206109038a828b0161088b565b96505060406109148a828b0161088b565b955050606088013567ffffffffffffffff81111561093157600080fd5b61093d8a828b01610841565b9450945050608088013567ffffffffffffffff81111561095c57600080fd5b6109688a828b01610841565b925092505092959891949750929550565b60006109858383610abd565b905092915050565b61099681610ca3565b82525050565b60006109a782610c3c565b6109b18185610c5f565b9350836020820285016109c385610c2c565b8060005b858110156109ff57848403895281516109e08582610979565b94506109eb83610c52565b925060208a019950506001810190506109c7565b50829750879550505050505092915050565b6000610a1d8385610c81565b9350610a2a838584610cdf565b610a3383610d82565b840190509392505050565b6000610a4982610c47565b610a538185610c70565b9350610a63818560208601610cee565b610a6c81610d82565b840191505092915050565b6000610a84602683610c92565b9150610a8f82610d93565b604082019050919050565b6000610aa7602083610c92565b9150610ab282610de2565b602082019050919050565b600060a083016000830151610ad56000860182610b3a565b506020830151610ae86020860182610b3a565b506040830151610afb6040860182610b3a565b5060608301518482036060860152610b138282610a3e565b91505060808301518482036080860152610b2d8282610a3e565b9150508091505092915050565b610b4381610cd5565b82525050565b610b5281610cd5565b82525050565b6000602082019050610b6d600083018461098d565b92915050565b60006020820190508181036000830152610b8d818461099c565b905092915050565b60006020820190508181036000830152610bae81610a77565b9050919050565b60006020820190508181036000830152610bce81610a9a565b9050919050565b6000608082019050610bea6000830189610b49565b610bf76020830188610b49565b8181036040830152610c0a818688610a11565b90508181036060830152610c1f818486610a11565b9050979650505050505050565b6000819050602082019050919050565b600081519050919050565b600081519050919050565b6000602082019050919050565b600082825260208201905092915050565b600082825260208201905092915050565b600082825260208201905092915050565b600082825260208201905092915050565b6000610cae82610cb5565b9050919050565b600073ffffffffffffffffffffffffffffffffffffffff82169050919050565b6000819050919050565b82818337600083830152505050565b60005b83811015610d0c578082015181840152602081019050610cf1565b83811115610d1b576000848401525b50505050565b60006002820490506001821680610d3957607f821691505b60208210811415610d4d57610d4c610d53565b5b50919050565b7f4e487b7100000000000000000000000000000000000000000000000000000000600052602260045260246000fd5b6000601f19601f8301169050919050565b7f4f776e61626c653a206e6577206f776e657220697320746865207a65726f206160008201527f6464726573730000000000000000000000000000000000000000000000000000602082015250565b7f4f776e61626c653a2063616c6c6572206973206e6f7420746865206f776e6572600082015250565b610e1481610ca3565b8114610e1f57600080fd5b50565b610e2b81610cd5565b8114610e3657600080fd5b5056fea264697066735822122068312cb95d6b2fd4cf9fbeee79df0bcd4e714e83cc2c53ee1c56d6546eb3e88564736f6c63430008040033",
  "linkReferences": {},
  "deployedLinkReferences": {}
}