{
  "_format": "hh-sol-artifact-1",
  "contractName": "CreatureAccessory",
  "sourceName": "contracts/CreatureAccessory.sol",
  "abi": [
    {
      "inputs": [
        {
          "internalType": "address",
          "name": "_proxyRegistryAddress",
          "type": "address"
        }
      ],
      "stateMutability": "nonpayable",
      "type": "constructor"
    },
    {
      "anonymous": false,
      "inputs": [
        {
          "indexed": true,
          "internalType": "address",
          "name": "account",
          "type": "address"
        },
        {
          "indexed": true,
          "internalType": "address",
          "name": "operator",
          "type": "address"
        },
        {
          "indexed": false,
          "internalType": "bool",
          "name": "approved",
          "type": "bool"
        }
      ],
      "name": "ApprovalForAll",
      "type": "event"
    },
    {
      "anonymous": false,
      "inputs": [
        {
          "indexed": false,
          "internalType": "address",
          "name": "userAddress",
          "type": "address"
        },
        {
          "indexed": false,
          "internalType": "address payable",
          "name": "relayerAddress",
          "type": "address"
        },
        {
          "indexed": false,
          "internalType": "bytes",
          "name": "functionSignature",
          "type": "bytes"
        }
      ],
      "name": "MetaTransactionExecuted",
      "type": "event"
    },
    {
      "anonymous": false,
      "inputs": [
        {
          "indexed": true,
          "internalType": "address",
          "name": "previousOwner",
          "type": "address"
        },
        {
          "indexed": true,
          "internalType": "address",
          "name": "newOwner",
          "type": "address"
        }
      ],
      "name": "OwnershipTransferred",
      "type": "event"
    },
    {
      "anonymous": false,
      "inputs": [
        {
          "indexed": true,
          "internalType": "address",
          "name": "operator",
          "type": "address"
        },
        {
          "indexed": true,
          "internalType": "address",
          "name": "from",
          "type": "address"
        },
        {
          "indexed": true,
          "internalType": "address",
          "name": "to",
          "type": "address"
        },
        {
          "indexed": false,
          "internalType": "uint256[]",
          "name": "ids",
          "type": "uint256[]"
        },
        {
          "indexed": false,
          "internalType": "uint256[]",
          "name": "values",
          "type": "uint256[]"
        }
      ],
      "name": "TransferBatch",
      "type": "event"
    },
    {
      "anonymous": false,
      "inputs": [
        {
          "indexed": true,
          "internalType": "address",
          "name": "operator",
          "type": "address"
        },
        {
          "indexed": true,
          "internalType": "address",
          "name": "from",
          "type": "address"
        },
        {
          "indexed": true,
          "internalType": "address",
          "name": "to",
          "type": "address"
        },
        {
          "indexed": false,
          "internalType": "uint256",
          "name": "id",
          "type": "uint256"
        },
        {
          "indexed": false,
          "internalType": "uint256",
          "name": "value",
          "type": "uint256"
        }
      ],
      "name": "TransferSingle",
      "type": "event"
    },
    {
      "anonymous": false,
      "inputs": [
        {
          "indexed": false,
          "internalType": "string",
          "name": "value",
          "type": "string"
        },
        {
          "indexed": true,
          "internalType": "uint256",
          "name": "id",
          "type": "uint256"
        }
      ],
      "name": "URI",
      "type": "event"
    },
    {
      "inputs": [],
      "name": "ERC712_VERSION",
      "outputs": [
        {
          "internalType": "string",
          "name": "",
          "type": "string"
        }
      ],
      "stateMutability": "view",
      "type": "function"
    },
    {
      "inputs": [
        {
          "internalType": "address",
          "name": "account",
          "type": "address"
        },
        {
          "internalType": "uint256",
          "name": "id",
          "type": "uint256"
        }
      ],
      "name": "balanceOf",
      "outputs": [
        {
          "internalType": "uint256",
          "name": "",
          "type": "uint256"
        }
      ],
      "stateMutability": "view",
      "type": "function"
    },
    {
      "inputs": [
        {
          "internalType": "address[]",
          "name": "accounts",
          "type": "address[]"
        },
        {
          "internalType": "uint256[]",
          "name": "ids",
          "type": "uint256[]"
        }
      ],
      "name": "balanceOfBatch",
      "outputs": [
        {
          "internalType": "uint256[]",
          "name": "",
          "type": "uint256[]"
        }
      ],
      "stateMutability": "view",
      "type": "function"
    },
    {
      "inputs": [
        {
          "internalType": "address",
          "name": "_to",
          "type": "address"
        },
        {
          "internalType": "uint256[]",
          "name": "_ids",
          "type": "uint256[]"
        },
        {
          "internalType": "uint256[]",
          "name": "_quantities",
          "type": "uint256[]"
        },
        {
          "internalType": "bytes",
          "name": "_data",
          "type": "bytes"
        }
      ],
      "name": "batchMint",
      "outputs": [],
      "stateMutability": "nonpayable",
      "type": "function"
    },
    {
      "inputs": [],
      "name": "contractURI",
      "outputs": [
        {
          "internalType": "string",
          "name": "",
          "type": "string"
        }
      ],
      "stateMutability": "pure",
      "type": "function"
    },
    {
      "inputs": [
        {
          "internalType": "address",
          "name": "_initialOwner",
          "type": "address"
        },
        {
          "internalType": "uint256",
          "name": "_id",
          "type": "uint256"
        },
        {
          "internalType": "uint256",
          "name": "_initialSupply",
          "type": "uint256"
        },
        {
          "internalType": "string",
          "name": "_uri",
          "type": "string"
        },
        {
          "internalType": "bytes",
          "name": "_data",
          "type": "bytes"
        }
      ],
      "name": "create",
      "outputs": [
        {
          "internalType": "uint256",
          "name": "",
          "type": "uint256"
        }
      ],
      "stateMutability": "nonpayable",
      "type": "function"
    },
    {
      "inputs": [
        {
          "internalType": "uint256",
          "name": "",
          "type": "uint256"
        }
      ],
      "name": "creators",
      "outputs": [
        {
          "internalType": "address",
          "name": "",
          "type": "address"
        }
      ],
      "stateMutability": "view",
      "type": "function"
    },
    {
      "inputs": [
        {
          "internalType": "address",
          "name": "userAddress",
          "type": "address"
        },
        {
          "internalType": "bytes",
          "name": "functionSignature",
          "type": "bytes"
        },
        {
          "internalType": "bytes32",
          "name": "sigR",
          "type": "bytes32"
        },
        {
          "internalType": "bytes32",
          "name": "sigS",
          "type": "bytes32"
        },
        {
          "internalType": "uint8",
          "name": "sigV",
          "type": "uint8"
        }
      ],
      "name": "executeMetaTransaction",
      "outputs": [
        {
          "internalType": "bytes",
          "name": "",
          "type": "bytes"
        }
      ],
      "stateMutability": "payable",
      "type": "function"
    },
    {
      "inputs": [
        {
          "internalType": "uint256",
          "name": "_id",
          "type": "uint256"
        }
      ],
      "name": "exists",
      "outputs": [
        {
          "internalType": "bool",
          "name": "",
          "type": "bool"
        }
      ],
      "stateMutability": "view",
      "type": "function"
    },
    {
      "inputs": [],
      "name": "getChainId",
      "outputs": [
        {
          "internalType": "uint256",
          "name": "",
          "type": "uint256"
        }
      ],
      "stateMutability": "view",
      "type": "function"
    },
    {
      "inputs": [],
      "name": "getDomainSeperator",
      "outputs": [
        {
          "internalType": "bytes32",
          "name": "",
          "type": "bytes32"
        }
      ],
      "stateMutability": "view",
      "type": "function"
    },
    {
      "inputs": [
        {
          "internalType": "address",
          "name": "user",
          "type": "address"
        }
      ],
      "name": "getNonce",
      "outputs": [
        {
          "internalType": "uint256",
          "name": "nonce",
          "type": "uint256"
        }
      ],
      "stateMutability": "view",
      "type": "function"
    },
    {
      "inputs": [
        {
          "internalType": "address",
          "name": "_owner",
          "type": "address"
        },
        {
          "internalType": "address",
          "name": "_operator",
          "type": "address"
        }
      ],
      "name": "isApprovedForAll",
      "outputs": [
        {
          "internalType": "bool",
          "name": "isOperator",
          "type": "bool"
        }
      ],
      "stateMutability": "view",
      "type": "function"
    },
    {
      "inputs": [
        {
          "internalType": "address",
          "name": "_to",
          "type": "address"
        },
        {
          "internalType": "uint256",
          "name": "_id",
          "type": "uint256"
        },
        {
          "internalType": "uint256",
          "name": "_quantity",
          "type": "uint256"
        },
        {
          "internalType": "bytes",
          "name": "_data",
          "type": "bytes"
        }
      ],
      "name": "mint",
      "outputs": [],
      "stateMutability": "nonpayable",
      "type": "function"
    },
    {
      "inputs": [],
      "name": "name",
      "outputs": [
        {
          "internalType": "string",
          "name": "",
          "type": "string"
        }
      ],
      "stateMutability": "view",
      "type": "function"
    },
    {
      "inputs": [],
      "name": "owner",
      "outputs": [
        {
          "internalType": "address",
          "name": "",
          "type": "address"
        }
      ],
      "stateMutability": "view",
      "type": "function"
    },
    {
      "inputs": [],
      "name": "renounceOwnership",
      "outputs": [],
      "stateMutability": "nonpayable",
      "type": "function"
    },
    {
      "inputs": [
        {
          "internalType": "address",
          "name": "from",
          "type": "address"
        },
        {
          "internalType": "address",
          "name": "to",
          "type": "address"
        },
        {
          "internalType": "uint256[]",
          "name": "ids",
          "type": "uint256[]"
        },
        {
          "internalType": "uint256[]",
          "name": "amounts",
          "type": "uint256[]"
        },
        {
          "internalType": "bytes",
          "name": "data",
          "type": "bytes"
        }
      ],
      "name": "safeBatchTransferFrom",
      "outputs": [],
      "stateMutability": "nonpayable",
      "type": "function"
    },
    {
      "inputs": [
        {
          "internalType": "address",
          "name": "from",
          "type": "address"
        },
        {
          "internalType": "address",
          "name": "to",
          "type": "address"
        },
        {
          "internalType": "uint256",
          "name": "id",
          "type": "uint256"
        },
        {
          "internalType": "uint256",
          "name": "amount",
          "type": "uint256"
        },
        {
          "internalType": "bytes",
          "name": "data",
          "type": "bytes"
        }
      ],
      "name": "safeTransferFrom",
      "outputs": [],
      "stateMutability": "nonpayable",
      "type": "function"
    },
    {
      "inputs": [
        {
          "internalType": "address",
          "name": "operator",
          "type": "address"
        },
        {
          "internalType": "bool",
          "name": "approved",
          "type": "bool"
        }
      ],
      "name": "setApprovalForAll",
      "outputs": [],
      "stateMutability": "nonpayable",
      "type": "function"
    },
    {
      "inputs": [
        {
          "internalType": "address",
          "name": "_to",
          "type": "address"
        },
        {
          "internalType": "uint256[]",
          "name": "_ids",
          "type": "uint256[]"
        }
      ],
      "name": "setCreator",
      "outputs": [],
      "stateMutability": "nonpayable",
      "type": "function"
    },
    {
      "inputs": [
        {
          "internalType": "uint256",
          "name": "_tokenId",
          "type": "uint256"
        },
        {
          "internalType": "string",
          "name": "_newURI",
          "type": "string"
        }
      ],
      "name": "setCustomURI",
      "outputs": [],
      "stateMutability": "nonpayable",
      "type": "function"
    },
    {
      "inputs": [
        {
          "internalType": "string",
          "name": "_newURI",
          "type": "string"
        }
      ],
      "name": "setURI",
      "outputs": [],
      "stateMutability": "nonpayable",
      "type": "function"
    },
    {
      "inputs": [
        {
          "internalType": "bytes4",
          "name": "interfaceId",
          "type": "bytes4"
        }
      ],
      "name": "supportsInterface",
      "outputs": [
        {
          "internalType": "bool",
          "name": "",
          "type": "bool"
        }
      ],
      "stateMutability": "view",
      "type": "function"
    },
    {
      "inputs": [],
      "name": "symbol",
      "outputs": [
        {
          "internalType": "string",
          "name": "",
          "type": "string"
        }
      ],
      "stateMutability": "view",
      "type": "function"
    },
    {
      "inputs": [
        {
          "internalType": "uint256",
          "name": "",
          "type": "uint256"
        }
      ],
      "name": "tokenSupply",
      "outputs": [
        {
          "internalType": "uint256",
          "name": "",
          "type": "uint256"
        }
      ],
      "stateMutability": "view",
      "type": "function"
    },
    {
      "inputs": [
        {
          "internalType": "uint256",
          "name": "_id",
          "type": "uint256"
        }
      ],
      "name": "totalSupply",
      "outputs": [
        {
          "internalType": "uint256",
          "name": "",
          "type": "uint256"
        }
      ],
      "stateMutability": "view",
      "type": "function"
    },
    {
      "inputs": [
        {
          "internalType": "address",
          "name": "newOwner",
          "type": "address"
        }
      ],
      "name": "transferOwnership",
      "outputs": [],
      "stateMutability": "nonpayable",
      "type": "function"
    },
    {
      "inputs": [
        {
          "internalType": "uint256",
          "name": "_id",
          "type": "uint256"
        }
      ],
      "name": "uri",
      "outputs": [
        {
          "internalType": "string",
          "name": "",
          "type": "string"
        }
      ],
      "stateMutability": "view",
      "type": "function"
    }
  ],
  "bytecode": "0x60806040526000600360006101000a81548160ff0219169083151502179055503480156200002c57600080fd5b5060405162005c2c38038062005c2c8339818101604052810190620000529190620005ae565b6040518060400160405280601681526020017f476f21426f7473206279204865616c7468204865726f000000000000000000008152506040518060400160405280600381526020017f474f42000000000000000000000000000000000000000000000000000000000081525060405180608001604052806048815260200162005be4604891398381620000eb81620002be60201b60201c565b506000620000fe620002da60201b60201c565b905080600660006101000a81548173ffffffffffffffffffffffffffffffffffffffff021916908373ffffffffffffffffffffffffffffffffffffffff1602179055508073ffffffffffffffffffffffffffffffffffffffff16600073ffffffffffffffffffffffffffffffffffffffff167f8be0079c531659141344cd1fd0a4f28419497f9722a3daafe3b4186f6b6457e060405160405180910390a35083600b9080519060200190620001b5929190620004e7565b5082600c9080519060200190620001ce929190620004e7565b5080600760006101000a81548173ffffffffffffffffffffffffffffffffffffffff021916908373ffffffffffffffffffffffffffffffffffffffff160217905550620002b3600b80546200022390620006f1565b80601f01602080910402602001604051908101604052809291908181526020018280546200025190620006f1565b8015620002a25780601f106200027657610100808354040283529160200191620002a2565b820191906000526020600020905b8154815290600101906020018083116200028457829003601f168201915b5050505050620002f660201b60201c565b505050505062000799565b8060029080519060200190620002d6929190620004e7565b5050565b6000620002f16200037860201b620024861760201c565b905090565b600360009054906101000a900460ff161562000349576040517f08c379a0000000000000000000000000000000000000000000000000000000008152600401620003409062000680565b60405180910390fd5b6200035a816200042b60201b60201c565b6001600360006101000a81548160ff02191690831515021790555050565b60003073ffffffffffffffffffffffffffffffffffffffff163373ffffffffffffffffffffffffffffffffffffffff1614156200042457600080368080601f016020809104026020016040519081016040528093929190818152602001838380828437600081840152601f19601f820116905080830192505050505050509050600080369050905073ffffffffffffffffffffffffffffffffffffffff81830151169250505062000428565b3390505b90565b6040518060800160405280604f815260200162005b95604f91398051906020012081805190602001206040518060400160405280600181526020017f31000000000000000000000000000000000000000000000000000000000000008152508051906020012030620004a2620004da60201b60201c565b60001b604051602001620004bb95949392919062000623565b6040516020818303038152906040528051906020012060048190555050565b6000804690508091505090565b828054620004f590620006f1565b90600052602060002090601f01602090048101928262000519576000855562000565565b82601f106200053457805160ff191683800117855562000565565b8280016001018555821562000565579182015b828111156200056457825182559160200191906001019062000547565b5b50905062000574919062000578565b5090565b5b808211156200059357600081600090555060010162000579565b5090565b600081519050620005a8816200077f565b92915050565b600060208284031215620005c157600080fd5b6000620005d18482850162000597565b91505092915050565b620005e581620006b3565b82525050565b620005f681620006c7565b82525050565b60006200060b600e83620006a2565b9150620006188262000756565b602082019050919050565b600060a0820190506200063a6000830188620005eb565b620006496020830187620005eb565b620006586040830186620005eb565b620006676060830185620005da565b620006766080830184620005eb565b9695505050505050565b600060208201905081810360008301526200069b81620005fc565b9050919050565b600082825260208201905092915050565b6000620006c082620006d1565b9050919050565b6000819050919050565b600073ffffffffffffffffffffffffffffffffffffffff82169050919050565b600060028204905060018216806200070a57607f821691505b6020821081141562000721576200072062000727565b5b50919050565b7f4e487b7100000000000000000000000000000000000000000000000000000000600052602260045260246000fd5b7f616c726561647920696e69746564000000000000000000000000000000000000600082015250565b6200078a81620006b3565b81146200079657600080fd5b50565b6153ec80620007a96000396000f3fe6080604052600436106101c15760003560e01c80634e1273f4116100f7578063b48ab8b611610095578063e8a3d48511610064578063e8a3d48514610690578063e985e9c5146106bb578063f242432a146106f8578063f2fde38b14610721576101c1565b8063b48ab8b6146105c4578063bd85b039146105ed578063cd53d08e1461062a578063d2a6b51a14610667576101c1565b8063731133e9116100d1578063731133e91461051c5780638da5cb5b1461054557806395d89b4114610570578063a22cb4651461059b576101c1565b80634e1273f41461048b5780634f558e79146104c8578063715018a614610505576101c1565b806320379ee5116101645780632eb2c2d61161013e5780632eb2c2d6146103d15780633408e470146103fa57806336a100d5146104255780633adf80b414610462576101c1565b806320379ee51461032c5780632693ebf2146103575780632d0335ab14610394576101c1565b806306fdde03116101a057806306fdde03146102695780630c53c51c146102945780630e89341c146102c45780630f7e597014610301576101c1565b8062fdd58e146101c657806301ffc9a71461020357806302fe530514610240575b600080fd5b3480156101d257600080fd5b506101ed60048036038101906101e89190613991565b61074a565b6040516101fa91906146d4565b60405180910390f35b34801561020f57600080fd5b5061022a60048036038101906102259190613b5b565b610813565b6040516102379190614330565b60405180910390f35b34801561024c57600080fd5b5061026760048036038101906102629190613bd6565b6108f5565b005b34801561027557600080fd5b5061027e61097d565b60405161028b9190614412565b60405180910390f35b6102ae60048036038101906102a99190613902565b610a0b565b6040516102bb91906143f0565b60405180910390f35b3480156102d057600080fd5b506102eb60048036038101906102e69190613c17565b610c7d565b6040516102f89190614412565b60405180910390f35b34801561030d57600080fd5b50610316610e27565b6040516103239190614412565b60405180910390f35b34801561033857600080fd5b50610341610e60565b60405161034e919061434b565b60405180910390f35b34801561036357600080fd5b5061037e60048036038101906103799190613c17565b610e6a565b60405161038b91906146d4565b60405180910390f35b3480156103a057600080fd5b506103bb60048036038101906103b69190613614565b610e82565b6040516103c891906146d4565b60405180910390f35b3480156103dd57600080fd5b506103f860048036038101906103f39190613679565b610ecb565b005b34801561040657600080fd5b5061040f6112c1565b60405161041c91906146d4565b60405180910390f35b34801561043157600080fd5b5061044c60048036038101906104479190613a48565b6112ce565b60405161045991906146d4565b60405180910390f35b34801561046e57600080fd5b5061048960048036038101906104849190613c40565b611489565b005b34801561049757600080fd5b506104b260048036038101906104ad9190613aef565b611597565b6040516104bf91906142d7565b60405180910390f35b3480156104d457600080fd5b506104ef60048036038101906104ea9190613c17565b611748565b6040516104fc9190614330565b60405180910390f35b34801561051157600080fd5b5061051a61175a565b005b34801561052857600080fd5b50610543600480360381019061053e91906139cd565b611897565b005b34801561055157600080fd5b5061055a611990565b60405161056791906141bc565b60405180910390f35b34801561057c57600080fd5b506105856119ba565b6040516105929190614412565b60405180910390f35b3480156105a757600080fd5b506105c260048036038101906105bd91906138c6565b611a48565b005b3480156105d057600080fd5b506105eb60048036038101906105e6919061381b565b611bc9565b005b3480156105f957600080fd5b50610614600480360381019061060f9190613c17565b611d6c565b60405161062191906146d4565b60405180910390f35b34801561063657600080fd5b50610651600480360381019061064c9190613c17565b611d89565b60405161065e91906141bc565b60405180910390f35b34801561067357600080fd5b5061068e600480360381019061068991906137c7565b611dbc565b005b34801561069c57600080fd5b506106a5611ea0565b6040516106b29190614412565b60405180910390f35b3480156106c757600080fd5b506106e260048036038101906106dd919061363d565b611ec0565b6040516106ef9190614330565b60405180910390f35b34801561070457600080fd5b5061071f600480360381019061071a9190613738565b611fc2565b005b34801561072d57600080fd5b5061074860048036038101906107439190613614565b6122da565b005b60008073ffffffffffffffffffffffffffffffffffffffff168373ffffffffffffffffffffffffffffffffffffffff1614156107bb576040517f08c379a00000000000000000000000000000000000000000000000000000000081526004016107b2906144b4565b60405180910390fd5b60008083815260200190815260200160002060008473ffffffffffffffffffffffffffffffffffffffff1673ffffffffffffffffffffffffffffffffffffffff16815260200190815260200160002054905092915050565b60007fd9b67a26000000000000000000000000000000000000000000000000000000007bffffffffffffffffffffffffffffffffffffffffffffffffffffffff1916827bffffffffffffffffffffffffffffffffffffffffffffffffffffffff191614806108de57507f0e89341c000000000000000000000000000000000000000000000000000000007bffffffffffffffffffffffffffffffffffffffffffffffffffffffff1916827bffffffffffffffffffffffffffffffffffffffffffffffffffffffff1916145b806108ee57506108ed82612537565b5b9050919050565b6108fd6125a1565b73ffffffffffffffffffffffffffffffffffffffff1661091b611990565b73ffffffffffffffffffffffffffffffffffffffff1614610971576040517f08c379a0000000000000000000000000000000000000000000000000000000008152600401610968906145d4565b60405180910390fd5b61097a816125b0565b50565b600b805461098a906149f9565b80601f01602080910402602001604051908101604052809291908181526020018280546109b6906149f9565b8015610a035780601f106109d857610100808354040283529160200191610a03565b820191906000526020600020905b8154815290600101906020018083116109e657829003601f168201915b505050505081565b606060006040518060600160405280600560008a73ffffffffffffffffffffffffffffffffffffffff1673ffffffffffffffffffffffffffffffffffffffff1681526020019081526020016000205481526020018873ffffffffffffffffffffffffffffffffffffffff168152602001878152509050610a8e87828787876125ca565b610acd576040517f08c379a0000000000000000000000000000000000000000000000000000000008152600401610ac4906145f4565b60405180910390fd5b610b206001600560008a73ffffffffffffffffffffffffffffffffffffffff1673ffffffffffffffffffffffffffffffffffffffff168152602001908152602001600020546126d390919063ffffffff16565b600560008973ffffffffffffffffffffffffffffffffffffffff1673ffffffffffffffffffffffffffffffffffffffff168152602001908152602001600020819055507f5845892132946850460bff5a0083f71031bc5bf9aadcd40f1de79423eac9b10b873388604051610b96939291906141d7565b60405180910390a16000803073ffffffffffffffffffffffffffffffffffffffff16888a604051602001610bcb92919061415d565b604051602081830303815290604052604051610be79190614146565b6000604051808303816000865af19150503d8060008114610c24576040519150601f19603f3d011682016040523d82523d6000602084013e610c29565b606091505b509150915081610c6e576040517f08c379a0000000000000000000000000000000000000000000000000000000008152600401610c65906144f4565b60405180910390fd5b80935050505095945050505050565b6060610c88826126e9565b610cc7576040517f08c379a0000000000000000000000000000000000000000000000000000000008152600401610cbe90614594565b60405180910390fd5b6000600a60008481526020019081526020016000208054610ce7906149f9565b80601f0160208091040260200160405190810160405280929190818152602001828054610d13906149f9565b8015610d605780601f10610d3557610100808354040283529160200191610d60565b820191906000526020600020905b815481529060010190602001808311610d4357829003601f168201915b50505050509050600081511115610e1557600a60008481526020019081526020016000208054610d8f906149f9565b80601f0160208091040260200160405190810160405280929190818152602001828054610dbb906149f9565b8015610e085780601f10610ddd57610100808354040283529160200191610e08565b820191906000526020600020905b815481529060010190602001808311610deb57829003601f168201915b5050505050915050610e22565b610e1e83612755565b9150505b919050565b6040518060400160405280600181526020017f310000000000000000000000000000000000000000000000000000000000000081525081565b6000600454905090565b60096020528060005260406000206000915090505481565b6000600560008373ffffffffffffffffffffffffffffffffffffffff1673ffffffffffffffffffffffffffffffffffffffff168152602001908152602001600020549050919050565b8151835114610f0f576040517f08c379a0000000000000000000000000000000000000000000000000000000008152600401610f0690614674565b60405180910390fd5b600073ffffffffffffffffffffffffffffffffffffffff168473ffffffffffffffffffffffffffffffffffffffff161415610f7f576040517f08c379a0000000000000000000000000000000000000000000000000000000008152600401610f7690614554565b60405180910390fd5b610f876125a1565b73ffffffffffffffffffffffffffffffffffffffff168573ffffffffffffffffffffffffffffffffffffffff161480610fcd5750610fcc85610fc76125a1565b611ec0565b5b61100c576040517f08c379a000000000000000000000000000000000000000000000000000000000815260040161100390614574565b60405180910390fd5b60006110166125a1565b90506110268187878787876127e9565b60005b845181101561122c57600085828151811061106d577f4e487b7100000000000000000000000000000000000000000000000000000000600052603260045260246000fd5b6020026020010151905060008583815181106110b2577f4e487b7100000000000000000000000000000000000000000000000000000000600052603260045260246000fd5b60200260200101519050600080600084815260200190815260200160002060008b73ffffffffffffffffffffffffffffffffffffffff1673ffffffffffffffffffffffffffffffffffffffff16815260200190815260200160002054905081811015611153576040517f08c379a000000000000000000000000000000000000000000000000000000000815260040161114a906145b4565b60405180910390fd5b818161115f91906148d4565b60008085815260200190815260200160002060008c73ffffffffffffffffffffffffffffffffffffffff1673ffffffffffffffffffffffffffffffffffffffff168152602001908152602001600020819055508160008085815260200190815260200160002060008b73ffffffffffffffffffffffffffffffffffffffff1673ffffffffffffffffffffffffffffffffffffffff1681526020019081526020016000206000828254611211919061487e565b925050819055505050508061122590614a5c565b9050611029565b508473ffffffffffffffffffffffffffffffffffffffff168673ffffffffffffffffffffffffffffffffffffffff168273ffffffffffffffffffffffffffffffffffffffff167f4a39dc06d4c0dbc64b70af90fd698a233a518aa5d07e595d983b8c0526c8f7fb87876040516112a39291906142f9565b60405180910390a46112b98187878787876127f1565b505050505050565b6000804690508091505090565b60006112d86125a1565b73ffffffffffffffffffffffffffffffffffffffff166112f6611990565b73ffffffffffffffffffffffffffffffffffffffff161461134c576040517f08c379a0000000000000000000000000000000000000000000000000000000008152600401611343906145d4565b60405180910390fd5b611355856126e9565b15611395576040517f08c379a000000000000000000000000000000000000000000000000000000000815260040161138c90614454565b60405180910390fd5b61139d6125a1565b6008600087815260200190815260200160002060006101000a81548173ffffffffffffffffffffffffffffffffffffffff021916908373ffffffffffffffffffffffffffffffffffffffff1602179055506000835111156114595782600a6000878152602001908152602001600020908051906020019061141f9291906132cd565b50847f6bb7ff708619ba0610cba295a58592e0451dee2622938c8755667688daf3529b846040516114509190614412565b60405180910390a25b611465868686856129d8565b83600960008781526020019081526020016000208190555084905095945050505050565b816114926125a1565b73ffffffffffffffffffffffffffffffffffffffff166008600083815260200190815260200160002060009054906101000a900473ffffffffffffffffffffffffffffffffffffffff1673ffffffffffffffffffffffffffffffffffffffff1614611532576040517f08c379a0000000000000000000000000000000000000000000000000000000008152600401611529906146b4565b60405180910390fd5b81600a600085815260200190815260200160002090805190602001906115599291906132cd565b50827f6bb7ff708619ba0610cba295a58592e0451dee2622938c8755667688daf3529b8360405161158a9190614412565b60405180910390a2505050565b606081518351146115dd576040517f08c379a00000000000000000000000000000000000000000000000000000000081526004016115d490614654565b60405180910390fd5b6000835167ffffffffffffffff811115611620577f4e487b7100000000000000000000000000000000000000000000000000000000600052604160045260246000fd5b60405190808252806020026020018201604052801561164e5781602001602082028036833780820191505090505b50905060005b845181101561173d576116e7858281518110611699577f4e487b7100000000000000000000000000000000000000000000000000000000600052603260045260246000fd5b60200260200101518583815181106116da577f4e487b7100000000000000000000000000000000000000000000000000000000600052603260045260246000fd5b602002602001015161074a565b828281518110611720577f4e487b7100000000000000000000000000000000000000000000000000000000600052603260045260246000fd5b6020026020010181815250508061173690614a5c565b9050611654565b508091505092915050565b6000611753826126e9565b9050919050565b6117626125a1565b73ffffffffffffffffffffffffffffffffffffffff16611780611990565b73ffffffffffffffffffffffffffffffffffffffff16146117d6576040517f08c379a00000000000000000000000000000000000000000000000000000000081526004016117cd906145d4565b60405180910390fd5b600073ffffffffffffffffffffffffffffffffffffffff16600660009054906101000a900473ffffffffffffffffffffffffffffffffffffffff1673ffffffffffffffffffffffffffffffffffffffff167f8be0079c531659141344cd1fd0a4f28419497f9722a3daafe3b4186f6b6457e060405160405180910390a36000600660006101000a81548173ffffffffffffffffffffffffffffffffffffffff021916908373ffffffffffffffffffffffffffffffffffffffff160217905550565b826118a06125a1565b73ffffffffffffffffffffffffffffffffffffffff166008600083815260200190815260200160002060009054906101000a900473ffffffffffffffffffffffffffffffffffffffff1673ffffffffffffffffffffffffffffffffffffffff1614611940576040517f08c379a0000000000000000000000000000000000000000000000000000000008152600401611937906146b4565b60405180910390fd5b61194c858585856129d8565b6119728360096000878152602001908152602001600020546126d390919063ffffffff16565b60096000868152602001908152602001600020819055505050505050565b6000600660009054906101000a900473ffffffffffffffffffffffffffffffffffffffff16905090565b600c80546119c7906149f9565b80601f01602080910402602001604051908101604052809291908181526020018280546119f3906149f9565b8015611a405780601f10611a1557610100808354040283529160200191611a40565b820191906000526020600020905b815481529060010190602001808311611a2357829003601f168201915b505050505081565b8173ffffffffffffffffffffffffffffffffffffffff16611a676125a1565b73ffffffffffffffffffffffffffffffffffffffff161415611abe576040517f08c379a0000000000000000000000000000000000000000000000000000000008152600401611ab590614634565b60405180910390fd5b8060016000611acb6125a1565b73ffffffffffffffffffffffffffffffffffffffff1673ffffffffffffffffffffffffffffffffffffffff16815260200190815260200160002060008473ffffffffffffffffffffffffffffffffffffffff1673ffffffffffffffffffffffffffffffffffffffff16815260200190815260200160002060006101000a81548160ff0219169083151502179055508173ffffffffffffffffffffffffffffffffffffffff16611b786125a1565b73ffffffffffffffffffffffffffffffffffffffff167f17307eab39ab6107e8899845ad3d59bd9653f200f220920489ca2b5937696c3183604051611bbd9190614330565b60405180910390a35050565b60005b8351811015611d59576000848281518110611c10577f4e487b7100000000000000000000000000000000000000000000000000000000600052603260045260246000fd5b60200260200101519050611c226125a1565b73ffffffffffffffffffffffffffffffffffffffff166008600083815260200190815260200160002060009054906101000a900473ffffffffffffffffffffffffffffffffffffffff1673ffffffffffffffffffffffffffffffffffffffff1614611cc2576040517f08c379a0000000000000000000000000000000000000000000000000000000008152600401611cb990614494565b60405180910390fd5b6000848381518110611cfd577f4e487b7100000000000000000000000000000000000000000000000000000000600052603260045260246000fd5b60200260200101519050611d2d8160096000858152602001908152602001600020546126d390919063ffffffff16565b600960008481526020019081526020016000208190555050508080611d5190614a5c565b915050611bcc565b50611d6684848484612b6e565b50505050565b600060096000838152602001908152602001600020549050919050565b60086020528060005260406000206000915054906101000a900473ffffffffffffffffffffffffffffffffffffffff1681565b600073ffffffffffffffffffffffffffffffffffffffff168273ffffffffffffffffffffffffffffffffffffffff161415611e2c576040517f08c379a0000000000000000000000000000000000000000000000000000000008152600401611e2390614614565b60405180910390fd5b60005b8151811015611e9b576000828281518110611e73577f4e487b7100000000000000000000000000000000000000000000000000000000600052603260045260246000fd5b60200260200101519050611e878482612dd8565b508080611e9390614a5c565b915050611e2f565b505050565b60606040518060800160405280605d815260200161535a605d9139905090565b600080600760009054906101000a900473ffffffffffffffffffffffffffffffffffffffff1690508273ffffffffffffffffffffffffffffffffffffffff168173ffffffffffffffffffffffffffffffffffffffff1663c4552791866040518263ffffffff1660e01b8152600401611f3891906141bc565b60206040518083038186803b158015611f5057600080fd5b505afa158015611f64573d6000803e3d6000fd5b505050506040513d601f19601f82011682018060405250810190611f889190613bad565b73ffffffffffffffffffffffffffffffffffffffff161415611fae576001915050611fbc565b611fb88484612ed8565b9150505b92915050565b600073ffffffffffffffffffffffffffffffffffffffff168473ffffffffffffffffffffffffffffffffffffffff161415612032576040517f08c379a000000000000000000000000000000000000000000000000000000000815260040161202990614554565b60405180910390fd5b61203a6125a1565b73ffffffffffffffffffffffffffffffffffffffff168573ffffffffffffffffffffffffffffffffffffffff161480612080575061207f8561207a6125a1565b611ec0565b5b6120bf576040517f08c379a00000000000000000000000000000000000000000000000000000000081526004016120b690614514565b60405180910390fd5b60006120c96125a1565b90506120e98187876120da88612f6c565b6120e388612f6c565b876127e9565b600080600086815260200190815260200160002060008873ffffffffffffffffffffffffffffffffffffffff1673ffffffffffffffffffffffffffffffffffffffff16815260200190815260200160002054905083811015612180576040517f08c379a0000000000000000000000000000000000000000000000000000000008152600401612177906145b4565b60405180910390fd5b838161218c91906148d4565b60008087815260200190815260200160002060008973ffffffffffffffffffffffffffffffffffffffff1673ffffffffffffffffffffffffffffffffffffffff168152602001908152602001600020819055508360008087815260200190815260200160002060008873ffffffffffffffffffffffffffffffffffffffff1673ffffffffffffffffffffffffffffffffffffffff168152602001908152602001600020600082825461223e919061487e565b925050819055508573ffffffffffffffffffffffffffffffffffffffff168773ffffffffffffffffffffffffffffffffffffffff168373ffffffffffffffffffffffffffffffffffffffff167fc3d58168c5ae7397731d063d5bbf3d657854427343f4c083240f7aacaa2d0f6288886040516122bb9291906146ef565b60405180910390a46122d1828888888888613032565b50505050505050565b6122e26125a1565b73ffffffffffffffffffffffffffffffffffffffff16612300611990565b73ffffffffffffffffffffffffffffffffffffffff1614612356576040517f08c379a000000000000000000000000000000000000000000000000000000000815260040161234d906145d4565b60405180910390fd5b600073ffffffffffffffffffffffffffffffffffffffff168173ffffffffffffffffffffffffffffffffffffffff1614156123c6576040517f08c379a00000000000000000000000000000000000000000000000000000000081526004016123bd906144d4565b60405180910390fd5b8073ffffffffffffffffffffffffffffffffffffffff16600660009054906101000a900473ffffffffffffffffffffffffffffffffffffffff1673ffffffffffffffffffffffffffffffffffffffff167f8be0079c531659141344cd1fd0a4f28419497f9722a3daafe3b4186f6b6457e060405160405180910390a380600660006101000a81548173ffffffffffffffffffffffffffffffffffffffff021916908373ffffffffffffffffffffffffffffffffffffffff16021790555050565b60003073ffffffffffffffffffffffffffffffffffffffff163373ffffffffffffffffffffffffffffffffffffffff16141561253057600080368080601f016020809104026020016040519081016040528093929190818152602001838380828437600081840152601f19601f820116905080830192505050505050509050600080369050905073ffffffffffffffffffffffffffffffffffffffff818301511692505050612534565b3390505b90565b60007f01ffc9a7000000000000000000000000000000000000000000000000000000007bffffffffffffffffffffffffffffffffffffffffffffffffffffffff1916827bffffffffffffffffffffffffffffffffffffffffffffffffffffffff1916149050919050565b60006125ab612486565b905090565b80600290805190602001906125c69291906132cd565b5050565b60008073ffffffffffffffffffffffffffffffffffffffff168673ffffffffffffffffffffffffffffffffffffffff16141561263b576040517f08c379a000000000000000000000000000000000000000000000000000000000815260040161263290614534565b60405180910390fd5b600161264e61264987613219565b613281565b8386866040516000815260200160405260405161266e94939291906143ab565b6020604051602081039080840390855afa158015612690573d6000803e3d6000fd5b5050506020604051035173ffffffffffffffffffffffffffffffffffffffff168673ffffffffffffffffffffffffffffffffffffffff1614905095945050505050565b600081836126e1919061487e565b905092915050565b60008073ffffffffffffffffffffffffffffffffffffffff166008600084815260200190815260200160002060009054906101000a900473ffffffffffffffffffffffffffffffffffffffff1673ffffffffffffffffffffffffffffffffffffffff1614159050919050565b606060028054612764906149f9565b80601f0160208091040260200160405190810160405280929190818152602001828054612790906149f9565b80156127dd5780601f106127b2576101008083540402835291602001916127dd565b820191906000526020600020905b8154815290600101906020018083116127c057829003601f168201915b50505050509050919050565b505050505050565b6128108473ffffffffffffffffffffffffffffffffffffffff166132ba565b156129d0578373ffffffffffffffffffffffffffffffffffffffff1663bc197c8187878686866040518663ffffffff1660e01b8152600401612856959493929190614215565b602060405180830381600087803b15801561287057600080fd5b505af19250505080156128a157506040513d601f19601f8201168201806040525081019061289e9190613b84565b60015b612947576128ad614b60565b806308c379a0141561290a57506128c26151df565b806128cd575061290c565b806040517f08c379a00000000000000000000000000000000000000000000000000000000081526004016129019190614412565b60405180910390fd5b505b6040517f08c379a000000000000000000000000000000000000000000000000000000000815260040161293e90614434565b60405180910390fd5b63bc197c8160e01b7bffffffffffffffffffffffffffffffffffffffffffffffffffffffff1916817bffffffffffffffffffffffffffffffffffffffffffffffffffffffff1916146129ce576040517f08c379a00000000000000000000000000000000000000000000000000000000081526004016129c590614474565b60405180910390fd5b505b505050505050565b600073ffffffffffffffffffffffffffffffffffffffff168473ffffffffffffffffffffffffffffffffffffffff161415612a48576040517f08c379a0000000000000000000000000000000000000000000000000000000008152600401612a3f90614694565b60405180910390fd5b6000612a526125a1565b9050612a7381600087612a6488612f6c565b612a6d88612f6c565b876127e9565b8260008086815260200190815260200160002060008773ffffffffffffffffffffffffffffffffffffffff1673ffffffffffffffffffffffffffffffffffffffff1681526020019081526020016000206000828254612ad2919061487e565b925050819055508473ffffffffffffffffffffffffffffffffffffffff16600073ffffffffffffffffffffffffffffffffffffffff168273ffffffffffffffffffffffffffffffffffffffff167fc3d58168c5ae7397731d063d5bbf3d657854427343f4c083240f7aacaa2d0f628787604051612b509291906146ef565b60405180910390a4612b6781600087878787613032565b5050505050565b600073ffffffffffffffffffffffffffffffffffffffff168473ffffffffffffffffffffffffffffffffffffffff161415612bde576040517f08c379a0000000000000000000000000000000000000000000000000000000008152600401612bd590614694565b60405180910390fd5b8151835114612c22576040517f08c379a0000000000000000000000000000000000000000000000000000000008152600401612c1990614674565b60405180910390fd5b6000612c2c6125a1565b9050612c3d816000878787876127e9565b60005b8451811015612d4257838181518110612c82577f4e487b7100000000000000000000000000000000000000000000000000000000600052603260045260246000fd5b6020026020010151600080878481518110612cc6577f4e487b7100000000000000000000000000000000000000000000000000000000600052603260045260246000fd5b6020026020010151815260200190815260200160002060008873ffffffffffffffffffffffffffffffffffffffff1673ffffffffffffffffffffffffffffffffffffffff1681526020019081526020016000206000828254612d28919061487e565b925050819055508080612d3a90614a5c565b915050612c40565b508473ffffffffffffffffffffffffffffffffffffffff16600073ffffffffffffffffffffffffffffffffffffffff168273ffffffffffffffffffffffffffffffffffffffff167f4a39dc06d4c0dbc64b70af90fd698a233a518aa5d07e595d983b8c0526c8f7fb8787604051612dba9291906142f9565b60405180910390a4612dd1816000878787876127f1565b5050505050565b80612de16125a1565b73ffffffffffffffffffffffffffffffffffffffff166008600083815260200190815260200160002060009054906101000a900473ffffffffffffffffffffffffffffffffffffffff1673ffffffffffffffffffffffffffffffffffffffff1614612e81576040517f08c379a0000000000000000000000000000000000000000000000000000000008152600401612e78906146b4565b60405180910390fd5b826008600084815260200190815260200160002060006101000a81548173ffffffffffffffffffffffffffffffffffffffff021916908373ffffffffffffffffffffffffffffffffffffffff160217905550505050565b6000600160008473ffffffffffffffffffffffffffffffffffffffff1673ffffffffffffffffffffffffffffffffffffffff16815260200190815260200160002060008373ffffffffffffffffffffffffffffffffffffffff1673ffffffffffffffffffffffffffffffffffffffff16815260200190815260200160002060009054906101000a900460ff16905092915050565b60606000600167ffffffffffffffff811115612fb1577f4e487b7100000000000000000000000000000000000000000000000000000000600052604160045260246000fd5b604051908082528060200260200182016040528015612fdf5781602001602082028036833780820191505090505b509050828160008151811061301d577f4e487b7100000000000000000000000000000000000000000000000000000000600052603260045260246000fd5b60200260200101818152505080915050919050565b6130518473ffffffffffffffffffffffffffffffffffffffff166132ba565b15613211578373ffffffffffffffffffffffffffffffffffffffff1663f23a6e6187878686866040518663ffffffff1660e01b815260040161309795949392919061427d565b602060405180830381600087803b1580156130b157600080fd5b505af19250505080156130e257506040513d601f19601f820116820180604052508101906130df9190613b84565b60015b613188576130ee614b60565b806308c379a0141561314b57506131036151df565b8061310e575061314d565b806040517f08c379a00000000000000000000000000000000000000000000000000000000081526004016131429190614412565b60405180910390fd5b505b6040517f08c379a000000000000000000000000000000000000000000000000000000000815260040161317f90614434565b60405180910390fd5b63f23a6e6160e01b7bffffffffffffffffffffffffffffffffffffffffffffffffffffffff1916817bffffffffffffffffffffffffffffffffffffffffffffffffffffffff19161461320f576040517f08c379a000000000000000000000000000000000000000000000000000000000815260040161320690614474565b60405180910390fd5b505b505050505050565b60006040518060800160405280604381526020016153176043913980519060200120826000015183602001518460400151805190602001206040516020016132649493929190614366565b604051602081830303815290604052805190602001209050919050565b600061328b610e60565b8260405160200161329d929190614185565b604051602081830303815290604052805190602001209050919050565b600080823b905060008111915050919050565b8280546132d9906149f9565b90600052602060002090601f0160209004810192826132fb5760008555613342565b82601f1061331457805160ff1916838001178555613342565b82800160010185558215613342579182015b82811115613341578251825591602001919060010190613326565b5b50905061334f9190613353565b5090565b5b8082111561336c576000816000905550600101613354565b5090565b600061338361337e8461473d565b614718565b905080838252602082019050828560208602820111156133a257600080fd5b60005b858110156133d257816133b888826134c4565b8452602084019350602083019250506001810190506133a5565b5050509392505050565b60006133ef6133ea84614769565b614718565b9050808382526020820190508285602086028201111561340e57600080fd5b60005b8581101561343e578161342488826135ea565b845260208401935060208301925050600181019050613411565b5050509392505050565b600061345b61345684614795565b614718565b90508281526020810184848401111561347357600080fd5b61347e8482856149b7565b509392505050565b6000613499613494846147c6565b614718565b9050828152602081018484840111156134b157600080fd5b6134bc8482856149b7565b509392505050565b6000813590506134d381615275565b92915050565b600082601f8301126134ea57600080fd5b81356134fa848260208601613370565b91505092915050565b600082601f83011261351457600080fd5b81356135248482602086016133dc565b91505092915050565b60008135905061353c8161528c565b92915050565b600081359050613551816152a3565b92915050565b600081359050613566816152ba565b92915050565b60008151905061357b816152ba565b92915050565b600082601f83011261359257600080fd5b81356135a2848260208601613448565b91505092915050565b6000815190506135ba816152d1565b92915050565b600082601f8301126135d157600080fd5b81356135e1848260208601613486565b91505092915050565b6000813590506135f9816152e8565b92915050565b60008135905061360e816152ff565b92915050565b60006020828403121561362657600080fd5b6000613634848285016134c4565b91505092915050565b6000806040838503121561365057600080fd5b600061365e858286016134c4565b925050602061366f858286016134c4565b9150509250929050565b600080600080600060a0868803121561369157600080fd5b600061369f888289016134c4565b95505060206136b0888289016134c4565b945050604086013567ffffffffffffffff8111156136cd57600080fd5b6136d988828901613503565b935050606086013567ffffffffffffffff8111156136f657600080fd5b61370288828901613503565b925050608086013567ffffffffffffffff81111561371f57600080fd5b61372b88828901613581565b9150509295509295909350565b600080600080600060a0868803121561375057600080fd5b600061375e888289016134c4565b955050602061376f888289016134c4565b9450506040613780888289016135ea565b9350506060613791888289016135ea565b925050608086013567ffffffffffffffff8111156137ae57600080fd5b6137ba88828901613581565b9150509295509295909350565b600080604083850312156137da57600080fd5b60006137e8858286016134c4565b925050602083013567ffffffffffffffff81111561380557600080fd5b61381185828601613503565b9150509250929050565b6000806000806080858703121561383157600080fd5b600061383f878288016134c4565b945050602085013567ffffffffffffffff81111561385c57600080fd5b61386887828801613503565b935050604085013567ffffffffffffffff81111561388557600080fd5b61389187828801613503565b925050606085013567ffffffffffffffff8111156138ae57600080fd5b6138ba87828801613581565b91505092959194509250565b600080604083850312156138d957600080fd5b60006138e7858286016134c4565b92505060206138f88582860161352d565b9150509250929050565b600080600080600060a0868803121561391a57600080fd5b6000613928888289016134c4565b955050602086013567ffffffffffffffff81111561394557600080fd5b61395188828901613581565b945050604061396288828901613542565b935050606061397388828901613542565b9250506080613984888289016135ff565b9150509295509295909350565b600080604083850312156139a457600080fd5b60006139b2858286016134c4565b92505060206139c3858286016135ea565b9150509250929050565b600080600080608085870312156139e357600080fd5b60006139f1878288016134c4565b9450506020613a02878288016135ea565b9350506040613a13878288016135ea565b925050606085013567ffffffffffffffff811115613a3057600080fd5b613a3c87828801613581565b91505092959194509250565b600080600080600060a08688031215613a6057600080fd5b6000613a6e888289016134c4565b9550506020613a7f888289016135ea565b9450506040613a90888289016135ea565b935050606086013567ffffffffffffffff811115613aad57600080fd5b613ab9888289016135c0565b925050608086013567ffffffffffffffff811115613ad657600080fd5b613ae288828901613581565b9150509295509295909350565b60008060408385031215613b0257600080fd5b600083013567ffffffffffffffff811115613b1c57600080fd5b613b28858286016134d9565b925050602083013567ffffffffffffffff811115613b4557600080fd5b613b5185828601613503565b9150509250929050565b600060208284031215613b6d57600080fd5b6000613b7b84828501613557565b91505092915050565b600060208284031215613b9657600080fd5b6000613ba48482850161356c565b91505092915050565b600060208284031215613bbf57600080fd5b6000613bcd848285016135ab565b91505092915050565b600060208284031215613be857600080fd5b600082013567ffffffffffffffff811115613c0257600080fd5b613c0e848285016135c0565b91505092915050565b600060208284031215613c2957600080fd5b6000613c37848285016135ea565b91505092915050565b60008060408385031215613c5357600080fd5b6000613c61858286016135ea565b925050602083013567ffffffffffffffff811115613c7e57600080fd5b613c8a858286016135c0565b9150509250929050565b6000613ca08383614119565b60208301905092915050565b613cb58161491a565b82525050565b613cc481614908565b82525050565b613cdb613cd682614908565b614aa5565b82525050565b6000613cec82614807565b613cf68185614835565b9350613d01836147f7565b8060005b83811015613d32578151613d198882613c94565b9750613d2483614828565b925050600181019050613d05565b5085935050505092915050565b613d488161492c565b82525050565b613d5781614938565b82525050565b613d6e613d6982614938565b614ab7565b82525050565b6000613d7f82614812565b613d898185614846565b9350613d998185602086016149c6565b613da281614b82565b840191505092915050565b6000613db882614812565b613dc28185614857565b9350613dd28185602086016149c6565b80840191505092915050565b6000613de98261481d565b613df38185614862565b9350613e038185602086016149c6565b613e0c81614b82565b840191505092915050565b6000613e24603483614862565b9150613e2f82614bad565b604082019050919050565b6000613e47601883614862565b9150613e5282614bfc565b602082019050919050565b6000613e6a602883614862565b9150613e7582614c25565b604082019050919050565b6000613e8d602f83614862565b9150613e9882614c74565b604082019050919050565b6000613eb0602b83614862565b9150613ebb82614cc3565b604082019050919050565b6000613ed3602683614862565b9150613ede82614d12565b604082019050919050565b6000613ef6601c83614862565b9150613f0182614d61565b602082019050919050565b6000613f19600283614873565b9150613f2482614d8a565b600282019050919050565b6000613f3c602983614862565b9150613f4782614db3565b604082019050919050565b6000613f5f602583614862565b9150613f6a82614e02565b604082019050919050565b6000613f82602583614862565b9150613f8d82614e51565b604082019050919050565b6000613fa5603283614862565b9150613fb082614ea0565b604082019050919050565b6000613fc8602683614862565b9150613fd382614eef565b604082019050919050565b6000613feb602a83614862565b9150613ff682614f3e565b604082019050919050565b600061400e602083614862565b915061401982614f8d565b602082019050919050565b6000614031602183614862565b915061403c82614fb6565b604082019050919050565b6000614054602c83614862565b915061405f82615005565b604082019050919050565b6000614077602983614862565b915061408282615054565b604082019050919050565b600061409a602983614862565b91506140a5826150a3565b604082019050919050565b60006140bd602883614862565b91506140c8826150f2565b604082019050919050565b60006140e0602183614862565b91506140eb82615141565b604082019050919050565b6000614103603183614862565b915061410e82615190565b604082019050919050565b614122816149a0565b82525050565b614131816149a0565b82525050565b614140816149aa565b82525050565b60006141528284613dad565b915081905092915050565b60006141698285613dad565b91506141758284613cca565b6014820191508190509392505050565b600061419082613f0c565b915061419c8285613d5d565b6020820191506141ac8284613d5d565b6020820191508190509392505050565b60006020820190506141d16000830184613cbb565b92915050565b60006060820190506141ec6000830186613cbb565b6141f96020830185613cac565b818103604083015261420b8184613d74565b9050949350505050565b600060a08201905061422a6000830188613cbb565b6142376020830187613cbb565b81810360408301526142498186613ce1565b9050818103606083015261425d8185613ce1565b905081810360808301526142718184613d74565b90509695505050505050565b600060a0820190506142926000830188613cbb565b61429f6020830187613cbb565b6142ac6040830186614128565b6142b96060830185614128565b81810360808301526142cb8184613d74565b90509695505050505050565b600060208201905081810360008301526142f18184613ce1565b905092915050565b600060408201905081810360008301526143138185613ce1565b905081810360208301526143278184613ce1565b90509392505050565b60006020820190506143456000830184613d3f565b92915050565b60006020820190506143606000830184613d4e565b92915050565b600060808201905061437b6000830187613d4e565b6143886020830186614128565b6143956040830185613cbb565b6143a26060830184613d4e565b95945050505050565b60006080820190506143c06000830187613d4e565b6143cd6020830186614137565b6143da6040830185613d4e565b6143e76060830184613d4e565b95945050505050565b6000602082019050818103600083015261440a8184613d74565b905092915050565b6000602082019050818103600083015261442c8184613dde565b905092915050565b6000602082019050818103600083015261444d81613e17565b9050919050565b6000602082019050818103600083015261446d81613e3a565b9050919050565b6000602082019050818103600083015261448d81613e5d565b9050919050565b600060208201905081810360008301526144ad81613e80565b9050919050565b600060208201905081810360008301526144cd81613ea3565b9050919050565b600060208201905081810360008301526144ed81613ec6565b9050919050565b6000602082019050818103600083015261450d81613ee9565b9050919050565b6000602082019050818103600083015261452d81613f2f565b9050919050565b6000602082019050818103600083015261454d81613f52565b9050919050565b6000602082019050818103600083015261456d81613f75565b9050919050565b6000602082019050818103600083015261458d81613f98565b9050919050565b600060208201905081810360008301526145ad81613fbb565b9050919050565b600060208201905081810360008301526145cd81613fde565b9050919050565b600060208201905081810360008301526145ed81614001565b9050919050565b6000602082019050818103600083015261460d81614024565b9050919050565b6000602082019050818103600083015261462d81614047565b9050919050565b6000602082019050818103600083015261464d8161406a565b9050919050565b6000602082019050818103600083015261466d8161408d565b9050919050565b6000602082019050818103600083015261468d816140b0565b9050919050565b600060208201905081810360008301526146ad816140d3565b9050919050565b600060208201905081810360008301526146cd816140f6565b9050919050565b60006020820190506146e96000830184614128565b92915050565b60006040820190506147046000830185614128565b6147116020830184614128565b9392505050565b6000614722614733565b905061472e8282614a2b565b919050565b6000604051905090565b600067ffffffffffffffff82111561475857614757614b31565b5b602082029050602081019050919050565b600067ffffffffffffffff82111561478457614783614b31565b5b602082029050602081019050919050565b600067ffffffffffffffff8211156147b0576147af614b31565b5b6147b982614b82565b9050602081019050919050565b600067ffffffffffffffff8211156147e1576147e0614b31565b5b6147ea82614b82565b9050602081019050919050565b6000819050602082019050919050565b600081519050919050565b600081519050919050565b600081519050919050565b6000602082019050919050565b600082825260208201905092915050565b600082825260208201905092915050565b600081905092915050565b600082825260208201905092915050565b600081905092915050565b6000614889826149a0565b9150614894836149a0565b9250827fffffffffffffffffffffffffffffffffffffffffffffffffffffffffffffffff038211156148c9576148c8614ad3565b5b828201905092915050565b60006148df826149a0565b91506148ea836149a0565b9250828210156148fd576148fc614ad3565b5b828203905092915050565b600061491382614980565b9050919050565b600061492582614980565b9050919050565b60008115159050919050565b6000819050919050565b60007fffffffff0000000000000000000000000000000000000000000000000000000082169050919050565b600061497982614908565b9050919050565b600073ffffffffffffffffffffffffffffffffffffffff82169050919050565b6000819050919050565b600060ff82169050919050565b82818337600083830152505050565b60005b838110156149e45780820151818401526020810190506149c9565b838111156149f3576000848401525b50505050565b60006002820490506001821680614a1157607f821691505b60208210811415614a2557614a24614b02565b5b50919050565b614a3482614b82565b810181811067ffffffffffffffff82111715614a5357614a52614b31565b5b80604052505050565b6000614a67826149a0565b91507fffffffffffffffffffffffffffffffffffffffffffffffffffffffffffffffff821415614a9a57614a99614ad3565b5b600182019050919050565b6000614ab082614ac1565b9050919050565b6000819050919050565b6000614acc82614b93565b9050919050565b7f4e487b7100000000000000000000000000000000000000000000000000000000600052601160045260246000fd5b7f4e487b7100000000000000000000000000000000000000000000000000000000600052602260045260246000fd5b7f4e487b7100000000000000000000000000000000000000000000000000000000600052604160045260246000fd5b600060033d1115614b7f5760046000803e614b7c600051614ba0565b90505b90565b6000601f19601f8301169050919050565b60008160601b9050919050565b60008160e01c9050919050565b7f455243313135353a207472616e7366657220746f206e6f6e204552433131353560008201527f526563656976657220696d706c656d656e746572000000000000000000000000602082015250565b7f746f6b656e205f696420616c7265616479206578697374730000000000000000600082015250565b7f455243313135353a204552433131353552656365697665722072656a6563746560008201527f6420746f6b656e73000000000000000000000000000000000000000000000000602082015250565b7f455243313135355472616461626c652362617463684d696e743a204f4e4c595f60008201527f43524541544f525f414c4c4f5745440000000000000000000000000000000000602082015250565b7f455243313135353a2062616c616e636520717565727920666f7220746865207a60008201527f65726f2061646472657373000000000000000000000000000000000000000000602082015250565b7f4f776e61626c653a206e6577206f776e657220697320746865207a65726f206160008201527f6464726573730000000000000000000000000000000000000000000000000000602082015250565b7f46756e6374696f6e2063616c6c206e6f74207375636365737366756c00000000600082015250565b7f1901000000000000000000000000000000000000000000000000000000000000600082015250565b7f455243313135353a2063616c6c6572206973206e6f74206f776e6572206e6f7260008201527f20617070726f7665640000000000000000000000000000000000000000000000602082015250565b7f4e61746976654d6574615472616e73616374696f6e3a20494e56414c49445f5360008201527f49474e4552000000000000000000000000000000000000000000000000000000602082015250565b7f455243313135353a207472616e7366657220746f20746865207a65726f20616460008201527f6472657373000000000000000000000000000000000000000000000000000000602082015250565b7f455243313135353a207472616e736665722063616c6c6572206973206e6f742060008201527f6f776e6572206e6f7220617070726f7665640000000000000000000000000000602082015250565b7f455243313135355472616461626c65237572693a204e4f4e4558495354454e5460008201527f5f544f4b454e0000000000000000000000000000000000000000000000000000602082015250565b7f455243313135353a20696e73756666696369656e742062616c616e636520666f60008201527f72207472616e7366657200000000000000000000000000000000000000000000602082015250565b7f4f776e61626c653a2063616c6c6572206973206e6f7420746865206f776e6572600082015250565b7f5369676e657220616e64207369676e617475726520646f206e6f74206d61746360008201527f6800000000000000000000000000000000000000000000000000000000000000602082015250565b7f455243313135355472616461626c652373657443726561746f723a20494e564160008201527f4c49445f414444524553532e0000000000000000000000000000000000000000602082015250565b7f455243313135353a2073657474696e6720617070726f76616c2073746174757360008201527f20666f722073656c660000000000000000000000000000000000000000000000602082015250565b7f455243313135353a206163636f756e747320616e6420696473206c656e67746860008201527f206d69736d617463680000000000000000000000000000000000000000000000602082015250565b7f455243313135353a2069647320616e6420616d6f756e7473206c656e6774682060008201527f6d69736d61746368000000000000000000000000000000000000000000000000602082015250565b7f455243313135353a206d696e7420746f20746865207a65726f2061646472657360008201527f7300000000000000000000000000000000000000000000000000000000000000602082015250565b7f455243313135355472616461626c652363726561746f724f6e6c793a204f4e4c60008201527f595f43524541544f525f414c4c4f574544000000000000000000000000000000602082015250565b600060443d10156151ef57615272565b6151f7614733565b60043d036004823e80513d602482011167ffffffffffffffff8211171561521f575050615272565b808201805167ffffffffffffffff81111561523d5750505050615272565b80602083010160043d03850181111561525a575050505050615272565b61526982602001850186614a2b565b82955050505050505b90565b61527e81614908565b811461528957600080fd5b50565b6152958161492c565b81146152a057600080fd5b50565b6152ac81614938565b81146152b757600080fd5b50565b6152c381614942565b81146152ce57600080fd5b50565b6152da8161496e565b81146152e557600080fd5b50565b6152f1816149a0565b81146152fc57600080fd5b50565b615308816149aa565b811461531357600080fd5b5056fe4d6574615472616e73616374696f6e2875696e74323536206e6f6e63652c616464726573732066726f6d2c62797465732066756e6374696f6e5369676e61747572652968747470733a2f2f697066732e696f2f697066732f516d5432646d617779327046777350557045674d756b734568523245486d5a396a32646262566f355935376a644a2f74657374436f6e74726163744d657461646174612e6a736f6ea2646970667358221220703ecb5c757e26a9e9d1a50a622342e8dffc8bdcaa54274d3ba541897571de4f64736f6c63430008040033454950373132446f6d61696e28737472696e67206e616d652c737472696e672076657273696f6e2c6164647265737320766572696679696e67436f6e74726163742c627974657333322073616c742968747470733a2f2f697066732e696f2f697066732f516d5432646d617779327046777350557045674d756b734568523245486d5a396a32646262566f355935376a644a2f7b69647d",
  "linkReferences": {},
  "deployedLinkReferences": {}
}